:200000000C942B060C942D550C9402550C94D7540C94AC540C9481540C9456540C942B54AD
:200020000C9400540C945C060C945C060C945C060C945C060C945C060C945C060C945C06BE
:200040000C945C060C945C060C945C060C945C060C945C060C945C060C945C060C94B653E9
:200060000C945C060C94E2550C94B8550C945C060C945C060C945C060C945C060C945C06F0
:200080000C945C060C945C060C945C060C945C060C945C060C945C060C945C060C94185644
:2000A0000C945C060C945C060C945C060C945C060C945C060C945C060C945C060C945C0630
:2000C0000C945C060C945C060C945C060C945C060C945C060C945C060C9482550C94585550
:2000E0000C945C06084AD73B3BCE016E84BCBFFDC12F3D6C74319ABD56833DDA3D00C77F1E
:2001000011BED9E4BB4C3E916BAAAABE000000803F000C94A0090C9400070C94D6060C9435
:20012000BB330C94463F0C94D0060C94BB060C949C0D0C9445140C940A300C94E0060C9493
:20014000BF380C941A080C946F0D0C94AC360C94203F0C9414420C94E8060C9415360C943A
:20016000013D0C94C1060C94BA3E0C94DA0A0C94B6430C949F090C94FB060C94AA3D0C9415
:20018000E4060C94C5060C94720A0C9497120C948D440C94EE060C9496060C9419080C9403
:2001A000036D0C9418080C945C0D0C947E310C94F2060C94013F0C94F6060C94923A0C9497
:2001C000785A0C943C3F0C94CD090C94FC060C94300A0C94DC090C944C0D0C94CB0D0C94AA
:2001E00085400C94C9060C944D0D0C94C8140C9430300C94220A0C944B410C94CD060C944A
:20020000DA064E414E494E495459494E46CDCCCC3D0AD7233C17B7D13877CC2B329595E64E
:20022000241FB14F0A000020410000C84200401C4620BCBE4CCA1B0E5AAEC59D7400407AF3
:2002400010F35A00A0724E18090010A5D4E80000E87648170000E40B54020000CA9A3B00AE
:200260000000E1F505000080969800000040420F000000A08601000000102700000000E81E
:2002800003000000006400000000000A00000000000100000000002C76D888DC674F08232D
:2002A000DFC1DFAE59E1B1B796E5E3E453C63AE651997696E8E6C28426EB898C9B62ED409A
:2002C0007C6FFCEFBC9C9F40F2BAA56FA5F490055A2AF75C936B6CF9676DC11BFCE0E40D6C
:2002E00047FEF520E6B500D0ED902E0300943577050080841E080000204E0A000000C80CD0
:20030000333333330F986E12831141EF8D2114893BE65516CFFEE6DB18D1844B381BF77C43
:200320001D901DA4BBE424203284725E228100C9F124ECA1E53D2748494748004C4F57007D
:200340004F4B0053544154453A494E484142494C495441444F0053544154453A4841424911
:200360004C495441444F0020526D413D00204C6D413D00204C6D413D302E303020526D41D7
:200380003D302E303000C2B0202864656661756C742900C2B0202843414C2900C2B020282D
:2003A00064656661756C742900C2B0202843414C2900202020524541523A202D005B42418D
:2003C0004C5D204C696D2046524F4E543A202B002020446561643DC2B10020204B643D007A
:2003E0005B42414C5D204B703D005B42414C5D20536574706F696E743A20005B42414C5D80
:2004000020416E74692D6361C3AD646120414354495641444F005B42414C5D204552524FC0
:20042000523A204D5055206E6F20646973706F6E69626C652E2056657269666963612049F8
:20044000324320285344413D32302C2053434C3D3231292E005B42414C5D20416E74692DE3
:200460006361C3AD646120444553414354495641444F0020206862206B64203C76616C6F35
:20048000723E2020202020202D20616A7573746172204B6420286D2F7320706F7220677215
:2004A00061646F2F73290020206862206B70203C76616C6F723E2020202020202D20616AA2
:2004C0007573746172204B7020286D2F7320706F7220677261646F290020206862207374E3
:2004E00061742020202020202020202020202D20616E67756C6F732C206C696D697465731E
:20050000207920706172616D6574726F730020206862207265617220203C677261646F7314
:200520003E20202D2066696A6172206C696D697465207472617365726F206D616E75616C82
:200540006D656E746500202068622066726F6E74203C677261646F733E20202D2066696A4F
:200560006172206C696D6974652066726F6E74616C206D616E75616C6D656E7465002020F7
:2005800068622063616C207265617220202020202020202D2063616C6962726172206C69F5
:2005A0006D697465207472617365726F2028696E636C696E61646F206174726173290020EF
:2005C0002068622063616C2066726F6E74202020202020202D2063616C6962726172206C9F
:2005E000696D6974652066726F6E74616C2028696E636C696E61646F206164656C616E74DB
:20060000652900202068622063616C202020202020202020202020202D20726563616C6995
:2006200062726172206E65757472616C202871756965746F2079206E6976656C61646F29E5
:200640000020206862206F6666202020202020202020202020202D206465736163746976F5
:2006600061720020206862206F6E20202020202020202020202020202D206163746976611B
:200680007220616E74692D6361696461005B42414C5D20436F6D616E646F733A005B42410A
:2006A0004C5D204B64203D20005B42414C5D204B70203D200020677264005B42414C5D2062
:2006C0004C696D697465205452415345524F3A202D005B42414C5D20726561722064656253
:2006E0006520736572203E20300020677264005B42414C5D204C696D6974652046524F4EC0
:2007000054414C3A202B005B42414C5D2066726F6E74206465626520736572203E203000DB
:2007200020677264005B42414C5D20526563616C69627261646F2E20536574706F696E74B9
:200740003A20005B42414C5D204D5055206E6F20646973706F6E69626C652E0020677264D5
:2007600020646573646520736574706F696E74005B42414C5D204C696D69746520545241AC
:200780005345524F2063616C69627261646F3A202D005B42414C5D204552524F523A2069E4
:2007A0006E636C696E6120656C20726F626F7420484143494120415452415320616E7465B4
:2007C000732064652063616C696272617220656C206C696D697465207472617365726F2E7A
:2007E000005B42414C5D204D5055206E6F20646973706F6E69626C652E002067726420640B
:200800006573646520736574706F696E74005B42414C5D204C696D6974652046524F4E54ED
:20082000414C2063616C69627261646F3A202B005B42414C5D204552524F523A20696E6320
:200840006C696E6120656C20726F626F74204841434941204144454C414E544520616E7486
:2008600065732064652063616C696272617220656C206C696D6974652066726F6E74616CAC
:200880002E005B42414C5D204D5055206E6F20646973706F6E69626C652E0053544154459C
:2008A0003A424C4F51554541444F00202053544F503D4C4F572C204252414B453D464C4FDE
:2008C00041542C2050574D3D3000202053544F503D464C4F41542C204252414B453D464C1D
:2008E0004F41542C206C6973746F207061726120636F6D616E646F7300202053544F503DA2
:200900004C4F572C204252414B453D484947482C2050574D3D300053544154453A00204F00
:20092000523D00204F4C3D002048523D0020484C3D0020523D00204C3D00204F523D0020D2
:200940004F4C3D002048523D0020484C3D00206C6174636865643D002070726F7465637484
:200960003D0020523D006E20535441545553204C3D006E2050524F54454354205245534572
:2009800054006E2050524F54454354204F4646006E2050524F54454354204F4E006E20431C
:2009A0004845434B006E2053454C46544553542050415353006D56006D5620204C3D005B23
:2009C000435552525D204F666673657420523D005B435552525D2053656E736F72657320C2
:2009E00041435337313220696E696369616C697A61646F730047505320494E4954205365ED
:200A00007269616C33204020002063686172733D002073656E74656E63655F6167655F6D40
:200A2000733D00206167655F6D733D002068646F703D0020736174733D00206C6F6E3D0077
:200A4000206C61743D0047206669783D002074656D703D002070697463683D002079617714
:200A60003D0020677A3D002067793D002067783D0020617A3D002061793D002061783D00DD
:200A8000492072656164793D0020526D413D00204C6D413D0020E2809420276862206F6EC3
:200AA000272070617261207265616374697661722E00203C206C696D3D2D005B42414C5D8D
:200AC00020434149444120545241534552412070697463685F6572723D0020E280942027F8
:200AE0006862206F6E272070617261207265616374697661722E00203E206C696D3D005BDD
:200B000042414C5D2043414944412046524F4E54414C2070697463685F6572723D00494457
:200B20004C450020523D006E2054524950204C3D0000002100240027002A002D00300033D9
:200B40000001010000040107010A0100002200250028002B002E0031003400020100000546
:200B60000108010B01000020002300260029002C002F003200000100000301060109010525
:200B8000050505070508080808020202020A0A0808040404040101010101010101030303CD
:200BA0000303030303040707070C0C0C0C0C0C0C0C0202020206060606060606060B0B0B54
:200BC0000B0B0B0B0B010210202008081020401020408002010201080402010102040810E7
:200BE000204080804020100804020180040201804020100804020108040201010204081062
:200C0000204080010204081020408000000A0B02090C0D0E08070304010000000000000097
:200C2000000000000000000000000000000000000000000000000012111000000000000081
:200C4000000000000000000000000000000000000000785A036D11241FBECFEFD1E2DEBF32
:200C6000CDBF00E00CBF18E1A0E0B2E0ECE0FEEE00E00BBF02C007900D92AA3DB107D9F769
:200C80002DE1AAEDB8E101C01D92AC36B207E1F716E0CAE2D6E000E006C021970109802FC4
:200CA000FE010E94A775C932D10780E00807A9F70E94DC5A0C94F4760C9400000F931F93BF
:200CC000CF93DF93FB011082C6EBDBE1E0E090E050E029912C32F1F02A3231F0222321F019
:200CE0002D3011F02A3021F49817B1F080E019C09813EFCFAE2FB0E08D010F5F1F4F041743
:200D000015073CF7A60FB71F2C93EF5FE2CF9F5FE0E0DFCF9813FBCFE60FF72FF11D10829F
:200D200081E0DF91CF911F910F9108958091181B9091191B891B990B08958150823108F09B
:200D40005AC0E82FF0E08827E755F94F8F4F0C94A775C906CD06BB06C106C506FB06D006F9
:200D6000D606DA06E006E406E806EE06F206FB06F606FC060007809180008F7780938000DD
:200D80000895809180008F7DF9CF80918000877FF5CF84B58F7784BD089584B58F7DFBCFCA
:200DA0008091B0008F778093B00008958091B0008F7DF9CF809190008F7780939000089590
:200DC000809190008F7DF9CF80919000877FF5CF8091A0008F778093A00008958091A0007B
:200DE0008F7DF9CF8091A000877FF5CF809120018F77809320010895809120018F7DF9CF95
:200E000080912001877FF5CFCF93DF93282F30E0F901E55FF34F8491F901EB53F44FD49126
:200E2000F901E158F44FC491CC23A1F081110E949D06EC2FF0E0EE0FFF1FEB59F44FA591CD
:200E4000B491EC91ED2381E090E009F480E0DF91CF91089580E090E0FACF1F93CF93DF9306
:200E6000282F30E0F901E55FF34F8491F901EB53F44FD491F901E158F44FC491CC23A9F043
:200E8000162F81110E949D06EC2FF0E0EE0FFF1FE55BF44FA591B4918FB7F894EC911111C1
:200EA00008C0D095DE23DC938FBFDF91CF911F910895DE2BF8CFCF93DF9390E0FC01EB53DB
:200EC000F44F24918158944FFC0184918823C9F090E0880F991FFC01EF5CF44FA591B49123
:200EE000FC01E55BF44FC591D49161110DC09FB7F8948C91209582238C9388812823288301
:200F00009FBFDF91CF910895623051F49FB7F8943C91822F809583238C93E8812E2BEFCF75
:200F20008FB7F894EC912E2B2C938FBFEACF863308F0865320917B00982F9870277F922B5B
:200F400090937B008770806480937C0080917A00806480937A0080917A0086FDFCCF8091A3
:200F600078009091790008953FB7F8948091141B9091151BA091161BB091171B26B5A89BBC
:200F800005C02F3F19F00196A11DB11D3FBFBA2FA92F982F8827BC01CD01620F711D811D95
:200FA000911D42E0660F771F881F991F4A95D1F708958F929F92AF92BF92CF92DF92EF927C
:200FC000FF926B017C010E94B4074B015C01C114D104E104F104B9F00E94B4076819790904
:200FE0008A099B09683E73408105910580F321E0C21AD108E108F10888EE880E83E0981E15
:20100000A11CB11CE4CFFF90EF90DF90CF90BF90AF909F908F9008952FB7F8946091101BB0
:201020007091111B8091121B9091131B2FBF0895089508958F929F92AF92BF92CF92DF927B
:20104000EF92FF920F931F930E94B4076B017C014091F9185091FA186091FB187091FC18F6
:2010600080915302909154028D3391050CF43FC0863591050CF440C084EC99E0A0E0B0E0F4
:201080008090F9189090FA18A090FB18B090FC1889288A288B28A9F197018601041B150B58
:2010A000260B370BB901A801481759076A077B0740F58091F1189091F218A091F318B091B1
:2010C000F4180196A11DB11D8093F1189093F218A093F318B093F4181F910F91FF90EF90AD
:2010E000DF90CF90BF90AF909F908F90089580EE9EE2A0E0B0E0C4CF80E797E1A0E0B0E029
:20110000BFCFC092F918D092FA18E092FB18F092FC182091F31A3091F41A2F5F3F4F3093E3
:20112000F41A2093F31A4091AE1B5091AF1B6091B01B7091B11B4F5F5F4F6F4F7F4F409358
:20114000AE1B5093AF1B6093B01B7093B11B4091091950910A1960910B1970910C199701C2
:201160008601041B150B260B370BB901A8018090091990900A19A0900B19B0900C198928F4
:201180008A288B2829F0481759076A077B0718F18091091990910A19A0910B19B0910C19E4
:2011A000892B8A2B8B2B79F0403412E451071FE06107710540F440930119509302196093F6
:2011C000031970930419C0920919D0920A19E0920B19F0920C198091551981118CC080912F
:2011E000DD199091DE19A091DF19B091E019892B8A2B8B2B09F47FC08091DD199091DE1904
:20120000A091DF19B091E01946015701881A990AAA0ABB0A20E4821622E492062FE0A2061D
:20122000B10408F068C08091D5199091D619A091D719B091D819892B8A2B8B2B09F464C037
:201240008091D5199091D619A091D719B091D81988169906AA06BB0608F456C02091D519CD
:201260003091D6194091D7195091D819A3E0B0E00E94A773680D791D8A1D9B1D22E09695C5
:201280008795779567952A95D1F76093D5197093D6198093D7199093D8192091D519309159
:2012A000D6194091D7195091D819A8E0B2E00E94A77328EE33E040E050E00E94857521346C
:2012C0008CE938074105510520F020E43CE940E050E0243C09E030074105510520F424ECF5
:2012E00039E040E050E020931D0230931E0240931F0250932002C092DD19D092DE19E092C4
:20130000DF19F092E019E8CE8092D5199092D619A092D719B092D819C0CFFC012481358157
:201320006217730748F480819181009729F0860F971FFC018081089580E00895089508959E
:20134000AF92BF92CF92DF92EF92FF920F931F93CF93DF936C017B018B01040F151FEB0147
:201360005E01AE18BF08C017D10759F06991D601ED91FC910190F081E02DC6011995892B75
:2013800079F7C501DF91CF911F910F91FF90EF90DF90CF90BF90AF900895FC01538D448D42
:2013A000252F30E0842F90E0821B930B541710F0CF96089501970895FC01918D828D9817F0
:2013C00061F0A28DAE0FBF2FB11D5D968C91928D9F5F9F73928F90E008958FEF9FEF0895FE
:2013E0000F931F930E940C086093BF1C7093C01C8093C11C9093C21C87EB9CE10E94DC09CF
:2014000097FF1DC00E940C080091BF1C1091C01C2091C11C3091C21C601B710B820B930B6B
:201420000091BB1C1091BC1C2091BD1C3091BE1C6017710782079307F8F28FEF9FEF1F91EE
:201440000F910895FC01918D828D981731F0828DE80FF11D858D90E008958FEF9FEF089579
:20146000FC01918D228D892F90E0805C9F4F821B91098F73992708958AE19CE10E94300A56
:2014800021E0892B09F420E0822F089587EB9CE10E94300A21E0892B09F420E0822F089581
:2014A000FC01A48DA80FB92FB11DA35ABF4F2C91848D90E001968F739927848FA689B7896D
:2014C0002C93A089B1898C91837080648C93938D848D981306C00288F389E02D80818F7D15
:2014E00080830895EF92FF920F931F93CF93DF93EC0181E0888F9B8D8C8D98131AC0E88976
:20150000F989808185FF15C09FB7F894EE89FF896083E889F98980818370806480839FBFFF
:2015200081E090E0DF91CF911F910F91FF90EF900895F62E0B8D10E00F5F1F4F0F731127CD
:20154000E02E8C8D8E110CC00FB607FCFACFE889F989808185FFF5CFCE010E94500AF1CFA1
:20156000EB8DEC0FFD2FF11DE35AFF4FF0829FB7F8940B8FEA89FB8980818062CFCF0F932B
:201580001F93CF93DF938C01D0E0C0E0F801EC0FFD1F6491662341F087EB9CE10E94720A1C
:2015A000892B11F02196F2CFCE01DF91CF911F910F910895CF93DF93EC01888D8823B9F048
:2015C000AA89BB89E889F9898C9185FD03C0808186FD0DC00FB607FCF7CF8C9185FFF2CFFE
:2015E000808185FFEDCFCE010E94500AE9CFDF91CF91089580E090E0892B29F00E94460A2B
:2016000081110E94000080E090E0892B49F080E090E0892B29F00E94000081110E94000066
:2016200080E090E0892B49F080E090E0892B29F00E94000081110E94000080E090E0892BF6
:2016400029F00E943C0A81110C94000008952091B219260F3327331F21323105ECF4209143
:20166000601BFC0190E080E0243069F082E00895A091B2192191AC014E56564EA40FB52F3C
:20168000B11D2C930196861798F38091B219680F6093B21980E0089581E008951092601BD5
:2016A00081E080935F1B10923A1B61E084E10E942D0761E085E10E942D07E9EBF0E08081A7
:2016C0008E7F808380818D7F808388E48093B80085E48093BC000895CF93DF9391E0909376
:2016E000F1198823B9F0C091B800D091BA008091BC008A7B8093BC0060E084E10E942D074C
:2017000060E085E10E942D070E944E0BD093BA00C093B800DF91CF9108958F929F92AF922A
:20172000BF92CF92DF92EF92FF920F931F93CF93DF93D091891BD13208F0D7C0182FC0911D
:20174000881B0E94B4076B017C018091601B81116BC082E08093601B10935F1B8FEF8093B9
:201760005E1B10925D1BD0935C1BA8E6BBE1ECE3FBE180E0D81391C010923B1B80913B1B2C
:20178000CC0FC82BC0933B1B80913A1B813009F088C010923A1B0E94B4076B017C0180912C
:2017A0003B1B8093BB008091621B9091631BA091641BB091651B892B8A2B8B2BA1F00E9415
:2017C000B4070091621B1091631B2091641B3091651B6C197D098E099F09061717072807FC
:2017E000390708F442C08091BC0083FDD8CF85EC8093BC000E94B4076B017C018091601BA5
:20180000823009F450C080915E1B8F3F09F46FC080915E1B803209F46CC080915E1B8033E3
:2018200009F469C084E026C08091621B9091631BA091641BB091651B892B8A2B8B2B09F47E
:2018400084CF0E94B4078090621B9090631BA090641BB090651B6C197D098E099F09861658
:201860009706A806B90608F070CF8091611B0E946C0B85E01092671B1092891B1092661B8F
:20188000DF91CF911F910F91FF90EF90DF90CF90BF90AF909F908F9008959D9191938F5F93
:2018A00069CF85EEA5CF8091621B9091631BA091641BB091651B892B8A2B8B2B09F49ECFE2
:2018C0000E94B4070091621B1091631B2091641B3091651B6C197D098E099F090617170788
:2018E0002807390708F08ACFC0CF81E0C3CF80E0C1CF82E0BFCF83E0BDCFCF92DF92EF9284
:20190000FF920F931F93CF93DF93D82FC62F613208F098C00E94B4076B017C018091601B5D
:2019200081116BC081E08093601B80935F1B9FEF90935E1B10925D1B9C0F90935C1B8093D2
:201940003B1B80913B1BDD0FD82BD0933B1B80913A1B813009F078C010923A1B0E94B40786
:201960006B017C0180913B1B8093BB008091621B9091631BA091641BB091651B892B8A2B42
:201980008B2BA1F00E94B4070091621B1091631B2091641B3091651B6C197D098E099F09BB
:2019A000061717072807390708F448C08091BC0083FDD8CF85EC8093BC000E94B4076B017C
:2019C0007C018091601B813009F440C080915D1B8C1710F4C0915D1BECE3FBE1AAE1BBE185
:2019E00080E08C1355C08C2FDF91CF911F910F91FF90EF90DF90CF9008958091621B9091D0
:201A0000631BA091641BB091651B892B8A2B8B2B09F484CF0E94B4070091621B1091631BDE
:201A20002091641B3091651B6C197D098E099F09061717072807390708F070CF8091611B7D
:201A40000E946C0BC0E0CFCF85EEB5CF8091621B9091631BA091641BB091651B892B8A2B31
:201A60008B2B09F4AECF0E94B4070091621B1091631B2091641B3091651B6C197D098E0999
:201A80009F09061717072807390708F09ACFD6CF91919D938F5FA5CF0895E091191B8091E7
:201AA000181BE81730F4F0E0E65EF44E808190E008958FEF9FEF08959091191B8091181B2A
:201AC0002FEF3FEF981748F4E92FF0E0E65EF44E208130E09F5F9093191BC9010895CF9293
:201AE000DF92EF92FF920F931F93CF93DF937C01CB018A012091661B222389F0EB016B011F
:201B0000C40ED51ECC15DD0569F06991D701ED91FC910190F081E02DC7011995F3CF642F2D
:201B20000E94270BC801DF91CF911F910F91FF90EF90DF90CF900895CF93DF931F92CDB766
:201B4000DEB769832091661B2223F9F02091891B203258F021E030E0FC013383228390E0DC
:201B600080E00F90DF91CF9108958091671BE82FF0E0E859F44E998190838F5F8093671B4C
:201B80008093891B81E090E0ECCF61E0CE0101960E94270BF7CF90E080E008958F929F9202
:201BA000AF92BF92CF92DF92EF92FF926B017C0183E0C816D104E104F10420F1A4E9B1E1A6
:201BC0000E94A7734B015C01A0E1BEE0A70196010E94A77386169706A806B906A8F0A8E1BF
:201BE000B5E10E94A773681579058A059B0570F081E0FF90EF90DF90CF90BF90AF909F900F
:201C00008F90089580E0F5CF82E0F3CF83E0F1CF8F929F92AF92BF92CF92DF92EF92FF92D5
:201C20000F931F93CF93DF936B017C01EA01890120E030E0A9010E948072181644F0F80175
:201C40001082118212821382D0E0C0E02AC0BE010D2E000C880B990B0E9487724B015C017B
:201C6000A70196010E948072F8011816CCF1108211821282138220E030E0A901C701B60126
:201C80000E946F7520E030E040E05FE387FD17C0C701B6010E94C2730E9412756C177D076B
:201CA0009CF4CE01DF91CF911F910F91FF90EF90DF90CF90BF90AF909F908F900895C70188
:201CC000B6010E94C173E8CF41E06F3F710509F00CF440E0EB01442321F3CFEFD0E0E1CFDD
:201CE0002081318142815381C701B6010E94C2736B017C012FE632E143E85AE30E94C27354
:201D00009B01AC01C501B4010E948072181634F4F801C082D182E282F38296CFA50194010E
:201D2000C701B6010E94C173F8016083718382839383B7CF109290198091471A9091481A9D
:201D4000A091491AB0914A1AB05880938C1990938D19A0938E19B0938F1910928819109217
:201D6000891910928A1910928B191092191910921A1910921B1910921C191092151910926E
:201D800016191092171910921819109280191092811910928219109283191092841910929C
:201DA0008519109286191092871908951092901A1092911A1092921A1092931A10928C1AE7
:201DC00010928D1A10928E1A10928F1A10927719109278191092791910927A1910927B1921
:201DE00010927C1910927D1910927E191092111910921219109213191092141910923A1910
:201E0000109235191092361910923719109238191092391910923119109232191092331941
:201E2000109234198FEF9FEF909303028093020290930102809300020C949A0E10923F19EB
:201E400010924019109241191092421910923B1910923C1910923D1910923E1910922519D0
:201E60001092261910922719109228191092211910922219109223191092241910921D196E
:201E800010921E1910921F191092201910922D1910922E1910922F1910923019109229192A
:201EA00010922A1910922B1910922C1910929E1A10929F1A1092A01A1092A11A1092961AB0
:201EC0001092971A1092981A1092991A1092951A1092941A1092A21A1092A31A1092A41A48
:201EE0001092A51A10929A1A10929B1A10929C1A10929D1A089510929E1B10929F1B10922D
:201F0000A01B1092A11B10929A1B10929B1B10929C1B10929D1B10928E1B10928F1B10920D
:201F2000901B1092911B10928A1B10928B1B10928C1B10928D1B1092AA1B1092AB1B109215
:201F4000AC1B1092AD1B08958091421A81118091F2190895CF93C62F9091610221E020936C
:201F6000661B9093881B1092671B1092891B682F84E59DE10E949C0D6C2F84E59DE10E94C3
:201F80009C0D81E0CF910C948D0BF8941092F61A1092F51A1092F41A1092F31A1092B21BE2
:201FA0001092B31B1092B41B1092B51B1092AE1B1092AF1B1092B01B1092B11B1092E11980
:201FC0001092E2191092E3191092E4191092DD191092DE191092DF191092E0191092D9192D
:201FE0001092DA191092DB191092DC191092D5191092D6191092D7191092D81910920D1911
:2020000010920E1910920F19109210191092091910920A1910920B1910920C19109205198C
:20202000109206191092071910920819109201191092021910920319109204191092FD18AD
:202040001092FE181092FF18109200191092F9181092FA181092FB181092FC181092F518D3
:202060001092F6181092F7181092F8181092F1181092F2181092F3181092F41878940E94ED
:202080000C086093E9197093EA198093EB199093EC190E940C086093E5197093E619809336
:2020A000E7199093E8191092A21A1092A31A1092A41A1092A51A10929A1A10929B1A10922F
:2020C0009C1A10929D1A08954F925F926F927F928F929F92AF92BF92CF92DF92EF92FF92A8
:2020E000CF93DF93CDB7DEB72C970FB6F894DEBF0FBECDBF0E940C0869837A838B839C831D
:202100000E94B40769877A878B879C878091E9199091EA19A091EB19B091EC1929813A8125
:202120004B815C81281B390B4A0B5B0BDA01C90184369105A105B10508F4C6C0F894E091E4
:20214000F51AF091F61A1092F61A1092F51A4090051950900619609007197090081980914D
:202160000D1990910E19A0910F19B091101978942091E9193091EA194091EB195091EC19F0
:202180002D833E834F8358878090A21A9090A31AA090A41AB090A51A0097A105B10509F497
:2021A000A2C1411451046104710409F49CC1C984DA84EB84FC84C81AD90AEA0AFB0AA3E003
:2021C000B0E0A30192010E94A773613432E473073FE08307910520F060E472E48FE090E08F
:2021E000603E43E9740744E08407910520F460EE73E984E090E06C157D058E059F0508F48D
:2022000072C1E330F10508F452C1C980DA80EB80FC808D819E81AF81B885C81AD90AEA0A96
:20222000FB0A09F444C1BF0190E080E00E94857220E030E64AE657E40E94E6722B013C018A
:20224000C701B6010E94857220E030E044E352E40E94E6729B01AC01C301B2010E94A07489
:202260006B017C01412C512C612C3FE3732E20E030E0A901C501B4010E948072181684F4CC
:20228000A5019401C701B6010E94C173A30192010E94E672A50194010E94C2736B017C0182
:2022A000C092A21AD092A31AE092A41AF092A51A29813A814B815C812093E9193093EA19F7
:2022C0004093EB195093EC198091E5199091E619A091E719B091E81929813A814B815C818F
:2022E000281B390B4A0B5B0BDA01C90184369105A105B10508F4C6C0F894E091F31AF0913E
:20230000F41A1092F41A1092F31A40900119509002196090031970900419809109199091EE
:202320000A19A0910B19B0910C1978942091E5193091E6194091E7195091E8192D833E8320
:202340004F83588780909A1A90909B1AA0909C1AB0909D1A0097A105B10509F4E4C041146D
:2023600051046104710409F4DEC0C984DA84EB84FC84C81AD90AEA0AFB0AA3E0B0E0A30184
:2023800092010E94A773613432E473073FE08307910520F060E472E48FE090E0603E43E937
:2023A000740744E08407910520F460EE73E984E090E06C157D058E059F0508F4B4C0E3300E
:2023C000F10508F494C0C980DA80EB80FC808D819E81AF81B885C81AD90AEA0AFB0A09F4D8
:2023E00086C0BF0190E080E00E94857220E030E64AE657E40E94E6722B013C01C701B6010B
:202400000E94857220E030E044E352E40E94E6729B01AC01C301B2010E94A0746B017C015D
:20242000412C512C612C9FE3792E20E030E0A901C501B4010E948072181684F4A501940152
:20244000C701B6010E94C173A30192010E94E672A50194010E94C2736B017C01C0929A1AF5
:20246000D0929B1AE0929C1AF0929D1A29813A814B815C812093E5193093E6194093E71990
:202480005093E8192C960FB6F894DEBF0FBECDBFDF91CF91FF90EF90DF90CF90BF90AF9015
:2024A0009F908F907F906F905F904F900895C301B2010E94857220E030E044E352E40E9436
:2024C000E6729B01AC0160EC71EE84E69CE40E94A0746B017C0123E3422E542C23EB622E93
:2024E0002EE3722EC4CEC12CD12C7601D9CEC301B2010E94857220E030E044E352E40E9472
:20250000E6729B01AC0160EC71EE84E69CE40E94A0746B017C0183E3482E542C83EB682E86
:202520008EE3782E82CFC12CD12C760197CF8F929F92AF92BF92CF92DF92EF92FF920F9302
:202540001F930E94B4076B017C014091FD185091FE186091FF1870910019809159029091F7
:202560005A028D3391050CF43FC0863591050CF440C084EC99E0A0E0B0E08090FD1890901B
:20258000FE18A090FF18B090001989288A288B28A9F197018601041B150B260B370BB9014A
:2025A000A801481759076A077B0740F58091F5189091F618A091F718B091F8180196A11D58
:2025C000B11D8093F5189093F618A093F718B093F8181F910F91FF90EF90DF90CF90BF90CC
:2025E000AF909F908F90089580EE9EE2A0E0B0E0C4CF80E797E1A0E0B0E0BFCFC092FD183C
:20260000D092FE18E092FF18F09200192091F51A3091F61A2F5F3F4F3093F61A2093F51ADC
:202620004091B21B5091B31B6091B41B7091B51B4F5F5F4F6F4F7F4F4093B21B5093B31B83
:202640006093B41B7093B51B40910D1950910E1960910F197091101997018601041B150B45
:20266000260B370BB901A80180900D1990900E19A0900F19B090101989288A288B2829F017
:20268000481759076A077B0718F180910D1990910E19A0910F19B0911019892B8A2B8B2B1E
:2026A00079F0403412E451071FE06107710540F440930519509306196093071970930819B4
:2026C000C0920D19D0920E19E0920F19F0921019809155198111BBC08091E1199091E21901
:2026E000A091E319B091E419892B8A2B8B2B09F4AEC08091E1199091E219A091E319B09150
:20270000E41946015701881A990AAA0ABB0A20E4821622E492062FE0A206B10408F097C06A
:202720008091D9199091DA19A091DB19B091DC19892B8A2B8B2B09F493C08091D919909194
:20274000DA19A091DB19B091DC1988169906AA06BB0608F485C02091D9193091DA19409114
:20276000DB195091DC19A3E0B0E00E94A773680D791D8A1D9B1D22E0969587957795679505
:202780002A95D1F76093D9197093DA198093DB199093DC198091D9199091DA19A091DB197C
:2027A000B091DC19803533EC9307A105B10508F060C0883709E69007A105B10508F05CC04C
:2027C000803E1EE29107A105B10508F058C080349F41A105B10508F055C0AEE5B1E0209165
:2027E000D9193091DA194091DB195091DC19B0901C020E94A77328EE33E040E050E00E9463
:202800008575AB2DB0E00E94A77324E630E040E050E00E94857521348CE9380741055105EF
:2028200020F020E43CE940E050E0243C09E030074105510520F424EC39E040E050E02093B3
:202840002102309322024093230250932402C092E119D092E219E092E319F092E419B9CE50
:202860008092D9199092DA19A092DB19B092DC1991CFAAE8B2E0B3CFA4EFB1E0B0CFA2ECAB
:20288000B1E0ADCFA7E7B1E0AACFCF92DF92EF92FF920F931F930E94B407AB01BC01809184
:2028A0006E1990916F19A0917019B09171190196A11DB11D80936E1990936F19A09370193F
:2028C000B09371190091561910915719209158193091591980911D0290911E02A0911F0202
:2028E000B09120026A017B01C01AD10AE20AF30A97018601081719072A073B07A8F1809175
:20290000D21A9091D31AA091D41AB091D51A0196A11DB11D8093D21A9093D31AA093D41A1B
:20292000B093D51A8091661990916719A0916819B09169190196A11DB11D809366199093E7
:202940006719A0936819B0936919409356195093571960935819709359191F910F91FF9031
:20296000EF90DF90CF90089580915E1990915F19A0916019B09161190196A11DB11D8093B1
:202980005E1990935F19A0936019B0936119E5CFCF92DF92EF92FF920F931F930E94B40773
:2029A000AB01BC018091721990917319A0917419B09175190196A11DB11D809372199093F4
:2029C0007319A0937419B093751900915A1910915B1920915C1930915D198091210290910F
:2029E0002202A0912302B09124026A017B01C01AD10AE20AF30A97018601081719072A07E2
:202A00003B07A8F18091D61A9091D71AA091D81AB091D91A0196A11DB11D8093D61A909328
:202A2000D71AA093D81AB093D91A80916A1990916B19A0916C19B0916D190196A11DB11D71
:202A400080936A1990936B19A0936C19B0936D1940935A1950935B1960935C1970935D193A
:202A60001F910F91FF90EF90DF90CF9008958091621990916319A0916419B0916519019660
:202A8000A11DB11D8093621990936319A0936419B0936519E5CF89EA809320018BE0809333
:202AA000210110922D0110922C0110922B0110922A01109229011092280161E08CE20E94D2
:202AC0005B0761E08DE20E945B0761E08EE20C945B07FC0101900020E9F73197AF01481BC4
:202AE000590BBC0187EB9CE10C94A00986EB92E00C946915CF93DF930E94BF0AEC010E94AE
:202B000076158C0F9D1FDF91CF91089510928B1A1092741A1092751A1092761A1092771A59
:202B200085E594E00C947A158F929F92AF92BF920F931F93CF93DF93CDB7DEB7A1970FB666
:202B4000F894DEBF0FBECDBF19A2423008F44AE08E010F5D1F4F842E912CB12CA12CA50178
:202B600094010E948575E62FB901CA01EA30F4F4E05DD801EE938D01232B242B252B79F706
:202B800090E080E0109719F0CD010E946915A1960FB6F894DEBF0FBECDBFDF91CF911F91C9
:202BA0000F91BF90AF909F908F900895E95CE1CF0C949415AB01682F70E090E080E00C94BB
:202BC000D815CF93DF93D0E0C0E0009719F00E946915EC010E9476158C0F9D1FDF91CF91E3
:202BE0000895009711F00C94691590E080E00895CF93DF934AE00E949415EC010E947615B2
:202C00008C0F9D1FDF91CF910895BC0190E080E04AE00C9494154F925F926F927F928F92EB
:202C20009F92AF92BF92CF92DF92EF92FF920F931F93CF936B017C01742EAC019B010E94C1
:202C40008075882399F089EB92E0CF911F910F91FF90EF90DF90CF90BF90AF909F908F90FD
:202C60007F906F905F904F900C94691546015701E894B7F82FEF3FEF4FE75FE7C501B4014D
:202C80000E94807581110DC02FEF3FEF4FE75FE7C501B4010E94807218161CF48DEB92E03F
:202CA000D4CF2FEF3FEF4FE75FE4C701B6010E946F7518161CF481EC92E0C7CF2FEF3FEFA8
:202CC0004FE75FECC701B6010E94807287FDF3CF20E030E0A901C701B6010E94807210E05D
:202CE00000E087FF0AC06DE287EB9CE10E94720A8C01F7FAF094F7F8F094C0E060E070E0A3
:202D000080E09FE37C1641F020E030E040E251E40E94A074CF5FF6CFA70196010E94C273E8
:202D20002B013C010E9419754B015C014AE00E9494157C01E00EF11ECC23A9F1C501B4015E
:202D40000E9485729B01AC01C301B2010E94C1734B015C016EE287EB9CE10E94720AE80E48
:202D6000F91EC15000F120E030E040E251E4C501B4010E94E6722B013C010E9419754B0179
:202D8000CB010E940516E80EF91EB40190E080E00E9485729B01AC01C301B2010E94C173E9
:202DA0004B015C01DECFC701CF911F910F91FF90EF90DF90CF90BF90AF909F908F907F907E
:202DC0006F905F904F9008950C940B16CF93DF930E940B16EC010E9476158C0F9D1FDF9150
:202DE000CF910895CF93DF930E940516EC010E9476158C0F9D1FDF91CF910895CF92DF9295
:202E0000EF92FF92CF93DF9397FF1BC06B017C016DE287EB9CE10E94720AEC0166277727FE
:202E2000CB016C197D098E099F094AE00E9494158C0F9D1FDF91CF91FF90EF90DF90CF9004
:202E400008954AE0DF91CF91FF90EF90DF90CF900C949415BC01990F880B990B0C94FE1666
:202E6000CF93DF930E942A17EC010E9476158C0F9D1FDF91CF910895E0E2F1E09081986021
:202E8000908390E090932D0180932C010895CF93DF93EC018F3F910519F014F0CFEFD0E0E1
:202EA000D7FF02C0D0E0C0E0CE010197099710F4CAE0D0E08091530290915402892BE9F457
:202EC0002097D9F0C83208F03FC0C33208F041C0CE3108F043C0C93108F045C0C43108F0B5
:202EE00047C080E49CE9A0E0B0E080931D0290931E02A0931F02B0932002D0935402C09398
:202F000053026093550281E0209709F080E0809356028091570281110AC08091580288235A
:202F200031F08EE10E942D078C2F0E943C170E940C086093071B7093081B8093091B909330
:202F40000A1BDF91CF91089584E699E1A0E0B0E0CCCF8CE49DE1A0E0B0E0C7CF80E692E2E2
:202F6000A0E0B0E0C2CF88EF9AE2A0E0B0E0BDCF80EB96E3A0E0B0E0B8CFCF92DF92EF9253
:202F8000FF920F931F93CF938C01C62FF894623008F079C0C090B21BD090B31BE090B41B8F
:202FA000F090B51B789461E0CC2349F060E0C13009F472C061E0C23009F06EC060E084E3EB
:202FC0000E942D07809120018068809320018CE390E0909329018093280180E00E943C1710
:202FE000D801ED91FC9160817181828193810E9419750E94D9078091200180688093200103
:20300000109229011092280180E00E943C17F894C23008F051C08091B21B9091B31BA0913F
:20302000B41BB091B51B7894BC01CD016C197D098E099F090E948572D8011296ED91FC91AA
:2030400020813181428153810E94A0746B017C01D801ED91FC91208131814281538160E0D9
:2030600070E68AE697E40E94A0749B01AC01C701B6010E94E672CF911F910F91FF90EF90D9
:20308000DF90CF900895C090AE1BD090AF1BE090B01BF090B11B86CF8EE10E942D078CE3F2
:2030A0000E943C1780912001806880932001109229011092280194CF8091AE1B9091AF1B0E
:2030C000A091B01BB091B11BAECFEF92FF921F93CF93DF937C01C091610281E08093661BAC
:2030E000C093881B1092671B1092891B6BE384E59DE10E949C0D80E00E948D0B6EE08C2F4D
:203100000E947D0C182F1092191B8093181BE7018EE0E80EF11C8091191B181741F084E5BA
:203120009DE10E945C0D8993EC16FD06A1F7DF91CF911F91FF90EF9008954F925F926F924F
:203140007F928F929F92AF92BF92CF92DF92EF92FF920F931F93CF93DF93CDB7DEB76A9754
:203160000FB6F894DEBF0FBECDBF8091421A882309F47FC185EC92E00E94E11580EF92E057
:203180000E94F11588EC90E00E942A178BEF92E00E94E11508EC10E0C12CD12C7601812C4A
:2031A000912C5401412C512C32011F8A188E198E1A8E1B8A1C8A1D8A1E8A1F86188A198ABE
:2031C0001A8ACE0101960E94651889819A81982789279827092E000CAA0BBB0B2F85388940
:2031E00049895A89280F391F4A1F5B1F2F87388B498B5A8B8B819C81982789279827092EE8
:20320000000CAA0BBB0B2B893C894D895E89280F391F4A1F5B1F2B8B3C8B4D8B5E8B8D8133
:203220009E81982789279827092E000CAA0BBB0B2F89388D498D5A8D280F391F4A1F5B1FD7
:203240002F8B388F498F5A8F89859A85982789279827092E000CAA0BBB0B480E591E6A1EBE
:203260007B1E8B859C85982789279827092E000CAA0BBB0B880E991EAA1EBB1E8D859E8575
:20328000982789279827092E000CAA0BBB0BC80ED91EEA1EFB1E65E070E080E090E00E944D
:2032A000D9070150110909F08CCFC301B2010E94877220E030E048E453E40E94A074609341
:2032C0002E1A70932F1A8093301A9093311AC501B4010E94877220E030E048E453E40E9464
:2032E000A07460932A1A70932B1A80932C1A90932D1AC701B6010E94877220E030E048E422
:2033000053E40E94A0746093261A7093271A8093281A9093291A6F85788989899A890E94C2
:20332000877220E030E048E453E40E94A07460933A1A70933B1A80933C1A90933D1A6B89F5
:203340007C898D899E890E94877220E030E048E453E40E94A0746093361A7093371A8093BD
:20336000381A9093391A6F89788D898D9A8D0E94877220E030E048E453E40E94A07420E087
:2033800030E040E056E40E94C1736093321A7093331A8093341A9093351A88E093E00E940E
:2033A000E11587E293E00E94F11560912E1A70912F1A8091301A9091311A41E050E00E9456
:2033C000E41680E493E00E94F11560912A1A70912B1A80912C1A90912D1A41E050E00E9447
:2033E000E41684E493E00E94F1156091261A7091271A8091281A9091291A41E050E00E9433
:20340000E61688E493E00E94F11560913A1A70913B1A80913C1A90913D1A41E050E00E94BC
:20342000E41680E493E00E94F1156091361A7091371A8091381A9091391A41E050E00E94B6
:20344000E41684E493E00E94F1156091321A7091331A8091341A9091351A41E050E00E94A2
:20346000E6161092471A1092481A1092491A10924A1A6A960FB6F894DEBF0FBECDBFDF9187
:20348000CF911F910F91FF90EF90DF90CF90BF90AF909F908F907F906F905F904F9008954B
:2034A0000E94A40F811104C086E194E00C947A150E949D188091811A9091821AA091831AC9
:2034C000B091841A80937D1A90937E1AA0937F1AB093801A1092781A81E080938B1A109210
:2034E000741A1092751A1092761A1092771A8BEF93E00E947A158AEE93E00E94BF0A609143
:203500007D1A70917E1A80917F1A9091801A42E050E00E94E41680EB92EC0E94301780EEE8
:2035200093E00E94BF0A60914702709148028091490290914A0244E050E00E94E4168AEDF8
:2035400093E00E94BF0A6091430270914402809145029091460244E050E00E94E41680EDF2
:2035600093E00E94BF0A41E050E060E070E080EC9FE30E94E41680EB92EC0E9430178DEBB8
:2035800093E00E94BF0A60914F0270915002809151029091520241E050E00E94E4168091E1
:2035A000441981111BC08CE993E00E94BF0A82EB93E00E94BF0A60914B0270914C02809105
:2035C0004D0290914E0241E050E00E94E41680914319811106C086E893E068CF89EA93E07B
:2035E000E4CF83E993E062CFCF93C091610281E08093661BC093881B1092671B1092891B9D
:2036000065E784E59DE10E949C0D80E00E948D0B61E08C2F0E947D0C1092191B8093181B4F
:20362000882321F084E59DE10E945C0DCF910895E0E2F1E0808180688083109229011092F2
:20364000280180E00E943C1761E082E30E945B0761E082E30E942D0761E08CE10E945B0714
:2036600061E08CE10E942D0761E080E30E945B0760E080E30E942D0761E08AE10E945B07F5
:2036800060E08AE10C942D070E944B15E0E2F1E0808180688083109229011092280180E033
:2036A0000E943C1761E082E30E945B0761E082E30E942D0761E08CE10E945B0761E08CE18F
:2036C0000E942D0768EC70E080E090E00E94D90760E082E30E945B0760E08CE10E945B07C4
:2036E00060E080E30E945B0760E08AE10E945B0782E090E090938A1A8093891AA9E5B2E005
:2037000081E015968C931597E3E5F2E0858313961C921397138214961C92149714821D9252
:203720001C921182108286E593E00C947A15EF92FF920F931F93CF93DF937C018B01809155
:20374000891A90918A1A029711F00E94441BE701CF3FD10519F014F0CFEFD0E0CA30D1054F
:2037600014F4CAE0D0E061E080E30E945B0760E080E30E942D0761E082E30E945B0761E0DB
:2037800082E30E942D0780912001806880932001109229011092280160E08AE10E945B075A
:2037A00061E08CE10E945B0760E08CE10E942D0760E08EE10E942D07F8948091F31A909184
:2037C000F41A9093F21A8093F11A1092F01A1092EF1A1093EA1A0093E91A8CE480935F0216
:2037E00081E08093F81A0E940C086093E51A7093E61A8093E71A9093E81AD093F018C093A1
:20380000EF18789460E0CE01DF91CF911F910F91FF90EF900C944717E0E2F1E080818068DE
:203820008083109229011092280180E00E943C1761E080E30E945B0760E080E30E942D0778
:2038400061E08AE10E945B0760E08AE10E942D0760E082E30E945B0760E08CE10E945B07DD
:2038600010928A1A1092891AA9E5B2E015961C921597E3E5F2E0158281E013968C93139794
:20388000838314961C92149714821D921C921182108283E493E00C947A15CF93DF93EC013D
:2038A0008F3F910519F014F0CFEFD0E0D7FF02C0D0E0C0E0CE010197099710F4CAE0D0E0DC
:2038C0008091590290915A02892BE9F42097D9F0C83208F045C0C33208F047C0CE3108F00C
:2038E00049C0C93108F04BC0C43108F04DC080E49CE9A0E0B0E08093210290932202A0931F
:203900002302B0932402D0935A02C093590260935B0281E0209709F080E080935C02809169
:203920005D02811110C080915E02882361F084E30E942D0780912001806880932001D0936B
:203940002901C09328010E940C086093071B7093081B8093091B90930A1BDF91CF910895E4
:2039600080EE95E1A0E0B0E0C6CF8CE29AE1A0E0B0E0C1CF88E79EE1A0E0B0E0BCCF88E440
:2039800096E2A0E0B0E0B7CF80E092E3A0E0B0E0B2CFCF92DF92EF92FF920F931F93CF9319
:2039A000DF930E940C080091111910911219209113193091141940917619011511052105DB
:2039C0003105D9F06B017C01C01AD10AE20AF30A9701860141116EC0043611052105310516
:2039E00008F45FC060931119709312198093131990931419C9E1D0E00EC06093111970938A
:203A000012198093131990931419442399F3C0912502D09126026091901A7091911A8091A0
:203A2000921A9091931A27E739E1AE010E94080E8C0160918C1A70918D1A80918E1A9091D7
:203A40008F1A2BE739E1AE010E94080EEC016091050280910202909103028017910721F4C6
:203A600080915B02861739F0C8010E944D1C10930302009302026091040281E06827809107
:203A80000002909101028C179D0721F480915502861739F0CE010E944717D0930102C093EE
:203AA0000002DF91CF911F910F91FF90EF90DF90CF900895043111052105310590F360934E
:203AC00011197093121980931319909314199FCFEF92FF920F931F93CF93DF937C018B014E
:203AE0008091891A90918A1A029711F00E94441BE701CF3FD10519F014F0CFEFD0E0CA3071
:203B0000D10514F4CAE0D0E061E08AE10E945B0760E08AE10E942D0761E08CE10E945B078A
:203B200061E08CE10E942D0780E00E943C1760E080E30E945B0761E082E30E945B0760E01B
:203B400082E30E942D0761E084E30E942D07F8948091F51A9091F61A9093F21A8093F11A82
:203B60001092F01A1092EF1A1093EA1A0093E91A82E580935F0281E08093F81A0E940C089A
:203B80006093E51A7093E61A8093E71A9093E81AD093F018C093EF18789461E0CE01DF91A6
:203BA000CF911F910F91FF90EF900C944D1C0F931F93CF93DF938C018091891A90918A1A10
:203BC000029711F00E94441BE8010F3F110519F014F0CFEFD0E0CA30D10514F4CAE0D0E050
:203BE00060E080E30E945B0760E08AE10E945B0760E082E30E945B0760E08CE10E945B0715
:203C000060E0CE010E944D1C61E0CE010E944717D0935A02C0935902D0935402C0935302AC
:203C200010925B0281E080935502DF91CF911F910F910895CF93DF93FC0124813581621758
:203C4000730788F49B01C081D18160E270E0CE01820F931F0E94B176009729F08C1B9D0BD3
:203C6000DF91CF9108958FEF9FEFFACFFC0180819181009711F00C944A6E60E070E0CB01A6
:203C800008958F929F92AF92BF92CF92DF92EF92FF92CF93DF93FC012081222309F43FC00C
:203CA000FB0120812223D9F1EB010E944A6E6B017C0120E030E048EC52E40E94A0740E9457
:203CC0001275072E000C880B990B0E9487724B015C0120E030E048EC52E40E94E6729B0191
:203CE000AC01C701B6010E94C17320E030E040E752E40E94A074A50194010E94C2732881E4
:203D00002B7F233509F49058DF91CF91FF90EF90DF90CF90BF90AF909F908F90089560E057
:203D200070E0CB01F1CFFC0180819181009711F00C946C6E60E070E0CB010895AF92BF92FA
:203D4000CF92DF92EF92FF920F931F93CF93DF93DC01CD90DC901197C114D10439F014968C
:203D6000CD91DC918C017601209761F4DF91CF911F910F91FF90EF90DF90CF90BF90AF90DE
:203D8000089575015701BFEFAB1ABB0AF7018081082E000C990B0E945F72892B91F721973A
:203DA000CC0DDD1D8881082E000C990B0E945F72892B29F0CE15DF0510F02197F3CFAE0111
:203DC0004F5F5F4F4E195F09D80115965C934E931497CE14DF0420F4B701C6010E94A876A1
:203DE000D801ED91FC91119714968D919C91E80FF91F1082BBCFFB0144815581FC012481DE
:203E000035812417350778F080819181009759F0FB01608171816115710529F00E94CC7662
:203E200021E0892B09F020E0822F0895EF92FF920F931F93CF93DF938617970769F1FC01BA
:203E400024813581FB014481558124173507E1F4232B11F1FC0100811181FB01C081D18135
:203E6000F80181918F018823B9F0082E000C990B0E9498767C018991082E000C990B0E949E
:203E80009876E816F90661F380E0DF91CF911F910F91FF90EF90089581E0F7CFFC012481CF
:203EA0003581232B39F421E0FB018081882349F020E007C0808191810E94BC7621E0892B8C
:203EC000B9F7822F08950F931F93CF93DF938C01EB01FC01808191810097E1F068817981E8
:203EE00061157105A9F0428153812C813D814217530770F00E94C5768C819D81F80195830F
:203F000084831D821C82DF91CF911F910F9108950E94C16D88819981F801918380838A8192
:203F20009B81938382838C819D8195838483198218821B821A82E5CFCF93DF93EC01888114
:203F40009981009711F00E94C16D198218821D821C821B821A82DF91CF910895FC018081C9
:203F60009181009711F00C94C16D08950F931F93CF93DF93EC0188819981009759F02A8169
:203F80003B812617370730F081E0DF91CF911F910F9108958B016F5F7F4F0E94B77500971F
:203FA00059F0998388831B830A832C813D81232B59F7FC011082E8CF80E0E7CFEF92FF92EF
:203FC0000F931F93CF93DF936115710541F480E0DF91CF911F910F91FF90EF900895411517
:203FE0005105B1F07B01EC010C811D81040F151FB8010E94B61F882351F3288139818C8160
:204000009D81B701820F931F0E94C5761D830C8381E0DECFCF93DF931F921F92CDB7DEB71E
:2040200069831A8241E050E0BE016F5F7F4F0E94DE1F0F900F90DF91CF910895EF92FF92F0
:204040000F931F93CF93DF93EC017B018A01BA010E94B61F81110BC0CE010E949C1FCE01BA
:20406000DF91CF911F910F91FF90EF9008951D830C83B701888199810E94C576F0CFFB01D3
:2040800001900020E9F73197AF01461B570B0C941E20EF92FF920F931F93CF93DF93CDB7B8
:2040A000DEB7E3970FB6F894DEBF0FBECDBF7C01CB01BA01F70111821082138212821582C9
:2040C00014828E010F5F1F4F24E046E00E94076D009789F0BC01C7010E943F20E3960FB6CB
:2040E000F894DEBF0FBECDBFDF91CF911F910F91FF90EF900895C7010E949C1FEFCFFB0194
:20410000DC0111961C921E9213961C921E92129715961C921E9214978617970749F0608104
:2041200071816115710521F0448155810C941E200895FC0111821082138212821582148202
:20414000FB0101900020E9F73197AF01461B570B0C941E20AF92BF92CF92DF92EF92FF9243
:204160000F931F93CF93DF936C015B017A0189012417350720F48F2D7901042F182F60ECC2
:2041800075E0C6010E949920D5011496CD91DC91EC16FD06E0F40C171D0708F4E801D50182
:2041A000ED91FC911197EC0FFD1F108110826D917C916E0D7F1DC60161157105A1F00E940A
:2041C0003F20F50180819181C80FD91F1883C601DF91CF911F910F91FF90EF90DF90CF904A
:2041E000BF90AF9008950E949C1FEBCFCF93DF93EC01FB01248135810E94AA20CE01DF91BA
:20420000CF9108952F923F924F925F926F927F928F929F92AF92BF92CF92DF92EF92FF9263
:204220000F931F93CF93DF93CDB7DEB7EA970FB6F894DEBF0FBECDBF7C0170E060E00E94C6
:204240001A1E5C016C012FEFC21AD20AB601C7010E941A1E8C011A141B040CF0E1C0181688
:2042600019060CF0DDC09C01A601B701CE0101960E94AA20A8014F5F5F4FB701CE0107968F
:204280000E94F620CE0101960E94361E6D8F7E8F8F8F98A3CE0107960E94361E6D8B7E8B45
:2042A0008F8B988F20E030E040E85FEB6D8D7E8D8F8D98A10E94807287FDCBC020E030E02E
:2042C00040E85FE36D8D7E8D8F8D98A10E946F75181644F480E090E0A0E8BFE38D8F9E8FEB
:2042E000AF8FB8A320E030E040E050EC6D897E898F89988D0E94807287FDB4C020E030E0E3
:2043000040E050E46D897E898F89988D0E946F75181644F480E090E0A0E0B0E48D8B9E8BFE
:20432000AF8BB88F0E940C086093E01A7093E11A8093E21A9093E31A81E08093E41A8091A9
:204340006B1A811118C08D8D9E8DAF8DB8A18093701A9093711AA093721AB093731A2D8904
:204360003E894F89588D20936C1A30936D1A40936E1A50936F1A8091891A90918A1A02975D
:2043800061F084E693E00E94E1150E94441B64E670E080E090E00E94D907CD8CDE8CEF8C2C
:2043A000F8A0E894F7F82AE037ED43E25CE3C701B6010E94807287FF5EC02AE037ED43E25E
:2043C0005CE36D897E898F89988D9F770E94807287FF51C00E94D60E61E090E080E00E94EA
:2043E0004D1C60E090E080E00E9447170E947B0F0E941E0F80916B1A81110AC080E993E07B
:204400000E94F11583E793E00E94BF0A0E947615CE0107960E94AE1FCE0101960E94AE1FCF
:20442000EA960FB6F894DEBF0FBECDBFDF91CF911F910F91FF90EF90DF90CF90BF90AF902B
:204440009F908F907F906F905F904F903F902F90089520E030E040E85FEB2D8F3E8F4F8F1E
:2044600058A340CF20E030E040E050EC2D8B3E8B4F8B588F57CF0E94A40F81115DC21092B6
:2044800090198D899E89AF89B88D8093801990938119A0938219B0938319898B9A8BAB8B34
:2044A000BC8B25E83BEE41ED5EE369897A898B899C890E94E6726B017C012D8D3E8D4F8D9E
:2044C00058A10E94C27369A77AA78BA79CA7A70196016D8D7E8D8F8D98A10E94C1736DA7E3
:2044E0007EA78FA798AB2224239420E030E0A90169A57AA58BA59CA50E946F7587FD212C72
:204500003324339420E030E0A9016DA57EA58FA598A90E946F7587FD312C80910702821501
:20452000F9F08091200180688093200110922901109228011092A21A1092A31A1092A41A90
:204540001092A51A10923F1910924019109241191092421965E070E080E090E00E94D90725
:20456000809106028315C9F080E00E943C1710929A1A10929B1A10929C1A10929D1A10927C
:204580003B1910923C1910923D1910923E1965E070E080E090E00E94D9072092070230927B
:2045A000060220E030E0A90169A57AA58BA59CA50E946F7587FDC9C3409018025090190220
:2045C00060901A0270901B0220E030E0A9016DA57EA58FA598A90E946F7587FDBFC3209111
:2045E0001402309115024091160250911702298F3A8F4B8F5C8FC9A4DAA4EBA4FCA4E8940E
:20460000F7F811E02AE037ED43E25CE3C701B6010E946F7518160CF010E02DA53EA54FA560
:2046200058A95F7729A33AA34BA35CA30E940C084B015C012AE037ED43E25CE3C701B6019D
:204640000E946F75181614F00C94AB2B80913A19811108C08092361990923719A092381918
:20466000B09239192AE037ED43E25CE369A17AA18BA19CA10E946F75181614F00C94C62B3D
:2046800080913519811108C08092311990923219A0923319B092341910933A1981E0809321
:2046A00035192AE037ED43E25CE3C701B6010E946F75181614F40C94CB2B1D861E861F865D
:2046C000188A2AE037ED43E25CE369A17AA18BA19CA10E946F75181614F00C94FB2B298DE4
:2046E0003A8D4B8D5C8D69A17AA18BA19CA10E94E6722B013C0120E030E0A9010E948072F3
:2047000087FF02C00C94F62B20E030E04FE753E4C301B2010E946F75181634F4412C512CD6
:20472000BFE76B2EB3E47B2E2AE037ED43E25CE3C701B6010E946F7518160CF024C3809141
:20474000361990913719A0913819B0913919A5019401281B390B4A0B5B0BDA01C9018639A3
:204760009105A105B10560F420E030E048EC51E46D857E858F8598890E94807287FD0AC767
:204780002AE037ED43E25CE369A17AA18BA19CA10E946F7518160CF4F6C220E030E0A901D3
:2047A0006D857E858F8598890E946F7587FD12C320E030E040E05FE36D857E858F85988954
:2047C0000E94C2730E9412757EA36DA320E030E0A901C301B2010E946F7520E030E040E0C1
:2047E0005FE387FD02C3C301B2010E94C2730E9412757AAF69AF4DA15EA1141615068CF4C4
:2048000080915B02821569F08091200180688093200110922901109228018BE39FE10197CF
:20482000F1F789AD9AAD181619066CF481E0832590915502891739F080E00E943C178BE359
:204840009FE10197F1F720E030E040E752E4C701B6010E94E6722BE935E249E55FE30E9435
:20486000A07469AB7AAB8BAB9CAB60932D1970932E1980932F199093301920E030E040E7ED
:2048800052E469A17AA18BA19CA10E94E6722BE935E249E55FE30E94A0746DAB7EAB8FAB8E
:2048A00098AF6093291970932A1980932B1990932C190E940C084B015C01809125199091A8
:2048C0002619A0912719B09128190097A105B10509F490C2A5019401281B390B4A0B5B0BE7
:2048E000CA01B9010E94857220E030E04AE754E40E94A074698F7A8F8B8F9C8F2AE037EDF7
:2049000043EA5CE30E94807287FD13C62DEC3CEC4CE45EE3698D7A8D8B8D9C8D0E946F75C4
:2049200018160CF06FC28DEC9CECACE4BEE3898F9A8FAB8FBC8F66C260914B1A70914C1A3F
:2049400080914D1A90914E1A905825E33AEF4EE85CE30E94E6726093191970931A19809360
:204960001B1990931C1920912F023091300240913102509132020E94C1736D877E878F87D8
:20498000988B40902B0250902C0260902D0270902E022AE037ED43EA5CE3C301B2010E94E7
:2049A000807287FD61C020E030E040E85FE3C301B2010E946F75181634F4412C512C20E8A1
:2049C000622E2FE3722E8090841990908519A0908619B0908719A50194016D857E858F8537
:2049E00098890E94C173A30192010E94E672A50194010E94C2734B015C0180928419909203
:204A00008519A0928619B09287199F7720912702309128024091290250912A020E948072CD
:204A200018161CF0812C912C54018092151990921619A0921719B0921819809191198111CA
:204A40001CC0109290192D893E894F89588D20938019309381194093821950938319298BAB
:204A60003A8B4B8B5C8B1DCD9AE0492E97ED592E93EA692E9CE3792EA6CF2AE037ED43E2CC
:204A80005DE36D897E898F89988D9F770E946F7587FD79C010929019A50194016D897E89C0
:204AA0008F89988D0E94C1732AE939E949E95EE30E94E6726B017C0123E333E343EB5EEBC5
:204AC0000E94807287FD42C023E333E343EB5EE3C701B6010E946F7518163CF483E3C82E72
:204AE000DC2C83EBE82E8EE3F82E109288191092891910928A1910928B19A70196016D894C
:204B00007E898F89988D0E94C273698B7A8B8B8B9C8B20E030E040E050EC0E94807287FDC0
:204B20001DC020E030E040E050E469897A898B899C890E946F751816CCF480E090E0A0E042
:204B4000B0E4898B9A8BAB8BBC8B10C003E3C02EDC2C03EBE02E0EEBF02EC7CF20E030E0A6
:204B600040E050EC298B3A8B4B8B5C8B89899A89AB89BC898093801990938119A0938219BE
:204B8000B09383198ECC2FE832EC45EF5CE3C701B6010E94807287FF07C00E949A0E2D89D4
:204BA0003E894F89588D5BCF6091471A7091481A8091491A90914A1A2091901921110EC03F
:204BC0008B019C01305800938C1910938D1920938E1930938F1921E02093901920918C192B
:204BE00030918D1940918E1950918F190E94C2736B017C0120E030E044E353E40E946F7599
:204C000018164CF420E030E044EB53E4C701B6010E94C173EDCF20E030E044E353ECC70161
:204C2000B6010E94807287FF0BC020E030E044EB53E4C701B6010E94C2736B017C01EBCF69
:204C40002FE832EC45EF5CEB6D8D7E8D8F8D98A10E94807220E030E040E050E487FD04C00A
:204C60002DEC3CEC4CE45FE3C701B6019F770E94807287FF03C0C12CD12C7601C0928819BB
:204C8000D0928919E0928A19F0928B192FE832EC45EF5CEB6D8D7E8D8F8D98A10E94807237
:204CA00087FD41C029E23CE54FE05DE38AE999E9A9E9BEE38D879E87AF87B88B13E3412E95
:204CC000542C13EB612E1EE3712EC701B6010E94E6726B017C012D853E854F855889C501D5
:204CE000B4010E94E6729B01AC01C701B6010E94C1737B018C01A30192015058298B3A8B06
:204D00004B8B5C8B0E94807287FD30CFA3019201B701C8010E946F751816A4F4498A5A8A04
:204D20006B8A7C8A23CF26EA3BE944E45CE38DEC9CECACECBDE38D879E87AF87B88B2C01D3
:204D40003D01C3CFC701D801FCCE4090100250901102609012027090130236CC80910C0209
:204D600090910D02A0910E02B0910F02898F9A8FAB8FBC8F40CC80E090E0A8ECB1E48D8791
:204D80009E87AF87B88B8091311990913219A0913319B0913419A5019401281B390B4A0B8C
:204DA0005B0BDA01C90186399105A105B10508F0F4CC20E030E048EC51E4C301B2010E94ED
:204DC000807287FFEACC412C512CA8EC6A2EA1E47A2EE3CC20E030E040E05FE36D857E854C
:204DE0008F8598890E94C173EDCCC301B2010E94C173FDCC2DEC3CEC4CEC5DE3298F3A8F9F
:204E00004B8F5C8F8092251990922619A0922719B092281910922119109222191092231990
:204E20001092241910921D1910921E1910921F191092201980917F19882309F4CFC320E04A
:204E400030E040E450E469A97AA98BA99CA90E94E6726DA37EA38FA398A720E030E040EF61
:204E600051E40E94807287FF08C020E030E040EF51E42DA33EA34FA358A720E030E040E4D1
:204E800050E46DA97EA98FA998AD0E94E6724B015C0120E030E040EF51E40E94807287FFF3
:204EA00006C0812C912CF0EFAF2EF1E4BF2E2DA13EA14FA158A560919E1A70919F1A809136
:204EC000A01A9091A11A0E946F75181684F410929E1A10929F1A1092A01A1092A11A109200
:204EE000A21A1092A31A1092A41A1092A51AA50194016091961A7091971A8091981A909164
:204F0000991A0E946F75181684F41092961A1092971A1092981A1092991A10929A1A10926C
:204F20009B1A10929C1A10929D1A8091961A9091971AA091981AB091991A8DA39EA3AFA3DE
:204F4000B8A72AE037ED43E25CE3C701B6010E946F7518160CF0B3C080909E1A90909F1A1D
:204F6000A090A01AB090A11A20E030E040E05FE3C501B4010E946F7518160CF0A0C0A501A9
:204F8000940169A97AA98BA99CA90E94C1734B015C01AC019B01698D7A8D8B8D9C8D0E9426
:204FA000E67220913F193091401940914119509142190E94C2736B017C0120E030E040EF10
:204FC00051EC0E94807287FDB9C220E030E040EF51E4C701B6010E946F75181634F4C12C45
:204FE000D12CE0EFEE2EE1E4FE2EC0923F19D0924019E0924119F0924219209166023091F0
:2050000067024091680250916902C501B4010E94E6724B015C012091A21B3091A31B4091C4
:20502000A41B5091A51BC701B6010E94E6729B01AC01C501B4010E94C2736B017C0120E013
:2050400030E040E251EC0E94807287FD7EC220E030E040EC50E4C701B6010E946F751816E6
:2050600034F4C12CD12C60ECE62E60E4F62EC0922119D0922219E0922319F0922419A70118
:2050800096016D857E858F8598890E94C2736D877E878F87988B20E030E0A9010E948072F8
:2050A00087FD8EC220E030E04FE753E46D857E858F8598890E946F7518160CF486C22AE06F
:2050C00037ED43E25CE369A17AA18BA19CA10E946F7518160CF0AEC020E030E040E05FE32A
:2050E0006DA17EA18FA198A50E946F7518160CF0A1C02DA13EA14FA158A56DA97EA98FA9F6
:2051000098AD0E94C1736B017C01AC019B01698D7A8D8B8D9C8D0E94E67220913B19309144
:205120003C1940913D1950913E190E94C2734B015C0120E030E040EF51EC0E94807287FDA7
:205140000BC220E030E040EF51E4C501B4010E946F75181634F4812C912C40EFA42E41E427
:20516000B42E80923B1990923C19A0923D19B0923E192091660230916702409168025091F0
:205180006902C701B6010E94E6726B017C012091A21B3091A31B4091A41B5091A51BC5015E
:2051A000B4010E94E6729B01AC01C701B6010E94C2736B017C0120E030E040E251EC0E94A7
:2051C000807287FDD0C120E030E040EC50E4C701B6010E946F75181634F4C12CD12C20EC07
:2051E000E22E20E4F22EC0921D19D0921E19E0921F19F0922019A7019601C301B2010E949D
:20520000C2732B013C0120E030E0A9010E94807287FDB0C120E030E04FE753E4C301B201B9
:205220000E946F75181634F4412C512C8FE7682E83E4782E2D853E854F8558892093901A08
:205240003093911A4093921A5093931A40928C1A50928D1A60928E1A70928F1A20920502D2
:20526000309204020E94C91C80916B1A8111D0C8E0900202F09003020091000210910102EF
:205280008CEC93E00E94F11543E050E06D8D7E8D8F8D98A10E94E41683ED93E00E94F115A7
:2052A00043E050E06D897E898F89988D0E94E41689ED93E00E94F11543E050E069897A89EC
:2052C0008B899C890E94E4168FED93E00E94F115609188197091891980918A1990918B19B4
:2052E00041E050E00E94E41685EE93E00E94F1156091191970911A1980911B1990911C1941
:2053000045E050E00E94E4168BEE93E00E94F1156091151970911619809117199091181926
:2053200043E050E00E94E41681EF93E00E94F115C70197FF02C090E080E00E942A1788EFA9
:2053400093E00E94F115C80117FF02C090E080E00E942A178FEF93E00E94F1156091A21A98
:205360007091A31A8091A41A9091A51A0E941275CB010E942A1786E094E00E94F115609175
:205380009A1A70919B1A80919C1A90919D1A0E941275CB010E942A178DE094E00E94F115A3
:2053A00060919E1A70919F1A8091A01A9091A11A0E941275CB010E942A1785E194E00E948F
:2053C000F1156091961A7091971A8091981A9091991A0E941275CB010E942A178DE194E023
:2053E0000E94F1158091951A882309F4C7C08AEC93E00E94F11583E294E00E94F1158091F3
:20540000941A882309F4BDC08AEC93E00E94F11589E294E00E94F11560912D1970912E1922
:2054200080912F199091301941E050E00E94E41681E394E00E94F1156091291970912A19C5
:2054400080912B1990912C1941E050E00E94E41689E394E00E94F1156091211970912219B5
:20546000809123199091241942E050E00E94E4168FE394E00E94F11560911D1970911E19A6
:2054800080911F199091201942E050E00E94E41685E494E00E94F11580917F1990E00E943B
:2054A0002A178AE494E00E94F11520E030E0A90169A57AA58BA59CA50E946F7587FD64C09B
:2054C0008AEC93E00E94F1158FE494E00E94F11520E030E0A9016DA57EA58FA598A90E94A6
:2054E0006F7587FD54C08AEC93E00E94F1158DE693E00E94BF0A6091631A7091641A809150
:20550000651A9091661A42E050E00E94E41687E693E00E94BF0A60915F1A7091601A80913C
:20552000611A9091621A42E050E00E94E4160C9406228AE097EDA3EABCE3F9C9C12CD12CD7
:2055400070EFE72E71ECF72E50CDC12CD12C50E2E52E51ECF52E8BCD812C912C30EFA32EF7
:2055600031ECB32EFECDC12CD12C90E2E92E91ECF92E39CE412C512C32015CCE8BEE9BE009
:2055800038CF8BEE9BE042CF82E693E09BCF82E693E0ABCF2AE037ED43E25CE369A17AA1AE
:2055A0008BA19CA10E946F7518160CF4E4CB80E090E0A8ECB1E48D879E87AF87B88BF8C8B4
:2055C0001D861E861F86188A7ACD20E030E04FE753E42D873E874F87588B71CD23102ACEDE
:2055E0002DEC3CEC4CE45DE369897A898B899C899F770E94807287FF1DCE2AE037ED43E25E
:205600005CE3C701B6010E946F7518160CF012CE2AE037ED43E25CE369A17AA18BA19CA11C
:205620000E946F7518160CF005CE8090A21A9090A31AA090A41AB090A51A20E030E040E41D
:2056400050E4C501B4010E946F7518160CF0F2CDC0909A1AD0909B1AE0909C1AF0909D1AB6
:2056600020E030E040E450E4C701B6010E946F7518160CF0DFCD20E030E040E251E46D858E
:205680007E858F8598890E946F7587FDD3CD20E030E040E251E4C301B2010E946F7587FD40
:2056A000C9CDA5019401C701B6010E94C17320E030E040E05FE30E94E6726B017C0120E06F
:2056C00030E040E051EC0E94807208EF1FEF87FD11C020E030E040E051E4C701B6010E94E9
:2056E0006F7508E010E018162CF0C701B6010E9412758B016DA17EA1600F711F6F3F710520
:2057000019F014F06FEF70E06A30710514F46AE070E0072E000C880B990B0E9487726D8715
:205720007E878F87988B69AD7AAD601B710B6F3F710519F014F06FEF70E06A30710514F400
:205740006AE070E0072E000C880B990B0E9487722B013C016FCD2AE037ED43E25CE369A15B
:205760007AA18BA19CA10E946F75181614F40C94402310923A1910923519412C512C3201E4
:205780004D865E866F86788A0C94D82381E080933A1910923519A3019201C701B6010E94B1
:2057A000E6726D877E878F87988B20E030E0A9010E94807287FF02C00C945D2320E030E099
:2057C0004FE753E46D857E858F8598890E946F75181614F00C94612380E090E0AFE7B3E459
:2057E0008D879E87AF87B88B0C946123412C512C32010C9494232AE037ED43E25CE3C70105
:20580000B6010E946F75412C512C3201181614F00C94CD230C949F23CF92DF92EF92FF9226
:205820000F931F93CF93DF93CDB7DEB72C970FB6F894DEBF0FBECDBF8C010E949E1E6DEED7
:2058400075E0CE0101960E949920BE016F5F7F4FC8010E94FB1EF82ECE0101960E94AE1F58
:20586000FF2089F00E94501A2C960FB6F894DEBF0FBECDBFDF91CF911F910F91FF90EF904D
:20588000DF90CF90089568EF75E0CE0101960E949920BE016F5F7F4FC8010E94FB1EF82E2B
:2058A000CE0101960E94AE1FFF2019F00E948615DBCF60E874E0CE0101960E949920BE01E8
:2058C0006F5F7F4FC8010E94FB1EF82ECE0101960E94AE1FFF2009F43FC00E94A40F8111AB
:2058E00005C082E898E00E947A15BECF20917D1A30917E1A40917F1A5091801A6091811A31
:205900007091821A8091831A9091841A0E94C1736B017C0120E030E0A9010E948072181642
:205920001CF080E398E0DFCFC0924F02D0925002E0925102F092520281E0809344198EE0A1
:2059400098E00E94BF0A42E050E0C701B6010E94E4168AEF97E0C7CF6AE874E0CE01019665
:205960000E949920BE016F5F7F4FC8010E94FB1EF82ECE0101960E94AE1FFF2009F441C0D5
:205980000E94A40F811103C081EE97E0ACCF20917D1A30917E1A40917F1A5091801A609185
:2059A000811A7091821A8091831A9091841A0E94C1736B017C0120E030E0A9010E946F7543
:2059C00087FD03C082E997E08ECFF7FAF094F7F8F094C0924B02D0924C02E0924D02F092C7
:2059E0004E0281E08093431980E797E00E94BF0A42E050E0C701B6010E94E4168CE597E0E9
:205A000072CF63E974E0CE0101960E949920BE016F5F7F4FC8010E94FB1EF82ECE01019679
:205A20000E94AE1FFF2031F10E94A40F811103C083E497E058CF0E949D18C090811AD09065
:205A4000821AE090831AF090841AC0927D1AD0927E1AE0927F1AF092801A85E297E00E94F5
:205A6000BF0A42E050E0C701B6010E94E41680E297E039CF67E974E0CE0107960E949920A4
:205A8000BE01695F7F4FC8010E94FB1EFF24F394811115C06EE974E0CE0101960E949920B0
:205AA000BE016F5F7F4FC8010E94FB1EFF24F394811101C0F12CCE0101960E94AE1FCE0149
:205AC00007960E94AE1FFF20A1F146E050E0B801CE0101960E94F620CE0101960E94361E80
:205AE0006B017C01CE0101960E94AE1F20E030E0A901C701B6010E94807218161CF087E07A
:205B000097E0F1CEC0924F02D0925002E0925102F0925202109244198FEE96E00E94BF0A00
:205B200042E050E0C701B6010E94E4168AEE96E0DACE65EA74E0CE0107960E949920BE0139
:205B4000695F7F4FC8010E94FB1EFF24F394811115C06BEA74E0CE0101960E949920BE01F1
:205B60006F5F7F4FC8010E94FB1EFF24F394811101C0F12CCE0101960E94AE1FCE010796AA
:205B80000E94AE1FFF20A1F145E050E0B801CE0101960E94F620CE0101960E94361E6B01F1
:205BA0007C01CE0101960E94AE1F20E030E0A901C701B6010E94807218161CF082ED96E0A7
:205BC00092CEC0924B02D0924C02E0924D02F0924E02109243198AEB96E00E94BF0A42E00D
:205BE00050E0C701B6010E94E41685EB96E07BCE61EB74E0CE0101960E949920BE016F5F3D
:205C00007F4FC8010E94FB1EF82ECE0101960E94AE1FFF2009F4EDC086EB94E00E94E115F1
:205C200088ED94E00E94F11580918B1A8111D8C088E39CE00E94E1158CEE94E00E94F115DE
:205C40008091781A8111CFC088E39CE00E94E11581E095E00E94F1150E94A40F8111C6C016
:205C600083E794E00E94E1150E94A40F882309F45EC020917D1A30917E1A40917F1A5091A7
:205C8000801A6091811A7091821A8091831A9091841A0E94C1736B017C0185E195E00E9498
:205CA000F1156091811A7091821A8091831A9091841A42E050E00E94E41689E295E00E94D8
:205CC000E1158CE295E00E94F11542E050E0C701B6010E94E41689E295E00E94E11580E4FA
:205CE00095E00E94F1156091791A70917A1A80917B1A90917C1A42E050E00E94E41684E5BA
:205D000095E00E94E11589E595E00E94F1156091741A7091751A8091761A9091771A43E066
:205D200050E00E94E4168EE695E00E94E11583E795E00E94F1156091701A7091711A809177
:205D4000721A9091731A43E050E00E94E41689E895E00E94F11560916C1A70916D1A80917C
:205D60006E1A90916F1A43E050E00E94E6168DE895E00E94F11560917D1A70917E1A80913C
:205D80007F1A9091801A42E050E00E94E41689E295E00E94E11581EA95E00E94F1156091D0
:205DA0004702709148028091490290914A0244E050E00E94E4168BEA95E00E94F115609113
:205DC000430270914402809145029091460244E050E00E94E6168FE591E10E94E11544CDF5
:205DE00080E39CE027CF84E594E030CF8FEB97E039CF61EB75E0CE0107960E949920BE01D2
:205E0000695F7F4FC8010E94FB1EFF24F394811115C065EB75E0CE0101960E949920BE0132
:205E20006F5F7F4FC8010E94FB1EFF24F394811101C0F12CCE0101960E94AE1FCE010796E7
:205E40000E94AE1FFF2021F143E050E0B801CE0101960E94F620CE0101960E94361E6B01B0
:205E60007C01C0924702D0924802E0924902F0924A02CE0101960E94AE1F89EA96E00E9473
:205E8000BF0A44E050E0C701B6010E94E616ECCC69EB75E0CE0107960E949920BE01695F19
:205EA0007F4FC8010E94FB1EFF24F394811115C06DEB75E0CE0101960E949920BE016F5F84
:205EC0007F4FC8010E94FB1EFF24F394811101C0F12CCE0101960E94AE1FCE0107960E9473
:205EE000AE1FFF20E1F043E050E0B801CE0101960E94F620CE0101960E94361E6B017C0176
:205F0000C0924302D0924402E0924502F0924602CE0101960E94AE1F8DE996E0B0CF8DE80A
:205F200096E00E947A1583E696E00E947A1581E496E00E947A1583E096E00E947A158FEB1A
:205F400095E00E947A158EE795E00E947A1586E495E00E947A158EE095E00E947A1589EDE6
:205F600094E00E947A1587EA94E00E947A1583E794E0B9CC2F923F924F925F926F927F928D
:205F80008F929F92AF92BF92CF92DF92EF92FF920F931F93CF93DF93CDB7DEB7EB970FB6B1
:205FA000F894DEBF0FBECDBF8C0170E060E00E948D098855833210F00C948D44E82F880F59
:205FC000FF0B8827E951F04D8F4F0C94A7754B418D448D448D448D448D448D448D448D44E3
:205FE0008D448D44AA3D013DBA3E14428D447E318D44BF38BB338D448D443030013F1536C9
:20600000AC36203F3C3F8D44923A0A308D448540B643463FB801CE0101960E947F20CE01AA
:2060200001960E940221CE0101960E94AE1FEB960FB6F894DEBF0FBECDBFDF91CF911F91E7
:206040000F91FF90EF90DF90CF90BF90AF909F908F907F906F905F904F903F902F900895E1
:2060600041E050E0B801CE0101960E94F620CE0101960E949E1E66ED75E0CE0101960E9484
:206080004E1F882329F085EA99E00E947A15CBCF6FED75E0CE0101960E944E1F882309F44E
:2060A0008AC0F8944090B21B5090B31B6090B41B7090B51B8090AE1B9090AF1BA090B01B72
:2060C000B090B11BC090D61AD090D71AE090D81AF090D91A2091D21A3091D31A4091D41A44
:2060E0005091D51A28A739A74AA75BA778948DE999E00E94BF0A86E399E00E94BF0AA701D3
:206100009601C301B2010E94CE0D8150833008F04CC0E82FF0E0EE0FFF1FE457FD4F8081E2
:2061200091810E94BF0A82E399E00E94BF0A28A539A54AA55BA5C501B4010E94CE0D815036
:206140008330B0F5E82FF0E0EE0FFF1FE457FD4F808191810E94BF0A8DE299E00E94BF0A8D
:206160004AE050E0C301B2010E94D81588E299E00E94BF0A4AE050E0C501B4010E94D8150D
:2061800083E299E00E94BF0A4AE050E0C701B6010E94D8158EE199E00E94BF0A68A579A5D0
:2061A0008AA59BA50E94F8153ECF8EE19BE0B9CF8EE19BE0CFCF65EE75E0CE0101960E940A
:2061C0004E1F882381F081E08093B31A1092B21A1092B91A1092B61A1092B71A1092B41ABD
:2061E00080E999E052CF60EF75E0CE0101960E944E1F882339F01092B31A1092B21A82E868
:2062000099E043CF6CEF75E0CE0101960E944E1F882389F01092B21A1092B91A1092B61A55
:206220001092B81A1092B51A1092B71A1092B41A82E799E02ACF86E699E00E94BF0AE091FA
:20624000B91AE1508EE19BE0E33038F4F0E0EE0FFF1FE457FD4F808191810E94BF0A82E6B9
:2062600099E00E94BF0AE091B61AE1508EE19BE0E33038F4F0E0EE0FFF1FE457FD4F80812C
:2062800091810E94BF0A88E599E00E94BF0A8091B31A90E00E942A178EE499E00E94BF0AA9
:2062A0008091B21A90E00E942A1789E499E00E94BF0A8091C01A9091C11A0E94051684E451
:2062C00099E00E94BF0A8091BE1A9091BF1A0E9405168FE399E00E94BF0A8091BC1A9091DC
:2062E000BD1A0E9405168AE399E00E94BF0A8091BA1A9091BB1A0E94F21695CE6AE076E031
:20630000CE0101960E949920BE016F5F7F4FC8010E94FB1EF82ECE0101960E94AE1FFF20C3
:2063200031F1D80114968D919C910497C8F043E050E0B801CE0140960E94F620BE01605F33
:206340007F4FCE0101960E947F20CE0101960E940C2CCE0101960E94AE1FCE01409665CEDB
:2063600060EC75E0CE0140960E949920E7CF6DE076E0CE0101960E949920BE016F5F7F4F07
:20638000C8010E94FB1EF82ECE0101960E94AE1FFF2009F44CCE42E050E0B801CE01829656
:2063A0000E94F620CE0182960E949E1E6DEE75E0CE0182960E944E1F882309F4B2C081E0BF
:2063C000809391190E949A0E88E196E00E94F1158091911990E00E942A1784E296E00E94A3
:2063E000F1158091901990E00E942A178BE296E00E94F11560918C1970918D1980918E190A
:2064000090918F1942E050E00E94E41681E396E00E94F1156091471A7091481A8091491A1A
:2064200090914A1A905842E050E00E94E4168AE998E10E94F1156091881970918919809127
:206440008A1990918B1942E050E00E94E41687E396E00E94F11560914B1A70914C1A809190
:206460004D1A90914E1A905825E33AEF4EE85CE30E94E67245E050E00E94E4168DE396E0CD
:206480000E94F1156091841970918519809186199091871945E050E00E94E41684E496E0E7
:2064A0000E94F11560912F0270913002809131029091320245E050E00E94E4168BE496E070
:2064C0000E94F11560912B0270912C0280912D0290912E0243E050E00E94E41683E596E069
:2064E0000E94F11560912702709128028091290290912A0245E050E00E94E4168BE596E04F
:206500000E94F1156091801970918119809182199091831943E050E00E94E616CE0182966D
:2065200084CD68EF75E0CE0182960E944E1F882319F01092911946CF64E076E0CE018296D2
:206540000E944E1F81113ECF60E176E0CE0101960E949920BE016F5F7F4FCE0182960E9451
:20656000FB1E182FCE0101960E94AE1F112309F42BCF47E050E0BE016E5D7F4FCE014C965B
:206580000E94F62070E060E0CE014C960E941A1E6C017C01BFEFEB1AFB0AB701CE014C961D
:2065A0000E941A1E8C011C141D040CF0C3C0C816D9060CF0BFC0960150E040E0BE01645E04
:2065C0007F4FCE0101960E94AA20CE0101960E94361E60932F0270933002809331029093FD
:2065E0003202CE0101960E94AE1F9801A701BE01645E7F4FCE0101960E94AA20CE010196CA
:206600000E94361E2AE037ED43EA5CE30E94807287FD95C09801A701BE01645E7F4FCE011E
:2066200040960E94AA20CE0140960E94361E20E030E040E85FE30E946F7518160CF486C009
:206640009801A701BE01645E7F4FCE0146960E94AA20CE0146960E94361E21E0FF24F39447
:2066600060932B0270932C0280932D0290932E02222321F0CE0146960E94AE1FFF2021F094
:20668000CE0140960E94AE1FCE0101960E94AE1F0F5F1F4FA801BE01645E7F4FCE010196D7
:2066A0000E94F620CE0101960E94361E20E030E0A9010E94807287FD51C0A801BE01645EB9
:2066C0007F4FCE0140960E94F620CE0140960E94361E2DEC3CEC4CE45EE30E946F7518168E
:2066E0000CF442C0A801BE01645E7F4FCE0146960E94F620CE0146960E94361E21E011E0AA
:2067000060932702709328028093290290932A02222321F0CE0146960E94AE1F112321F0EE
:20672000CE0140960E94AE1FCE0101960E94AE1F0E949A0ECE014C960E94AE1F45CE20E0F3
:20674000F12C6AE077ED83EA9CE38ACF20E0FF24F39460E070E080E89FE382CF20E010E0C4
:2067600060E070E0CB01CCCF20E011E06DEC7CEC8CE49EE3C5CF41E050E0B801CE014C9630
:206780000E94F620CE014C960E949E1E6DEE75E0CE014C960E944E1F882331F081E0809382
:2067A0007F190E941E0FA8C068EF75E0CE014C960E944E1F882319F010927F19F2CF61E6A8
:2067C00076E0CE0101960E949920BE016F5F7F4FCE014C960E94FB1E182FCE0101960E948C
:2067E000AE1F112309F4D6C020E030E0A9016091901A7091911A8091921A9091931A0E94D7
:20680000807281110FC020E030E0A90160918C1A70918D1A80918E1A90918F1A0E94807215
:20682000882339F088E696E00E94E115CE014C96FCCB46E050E0BE01645E7F4FCE01019685
:206840000E94F620CE0101960E94931E16161706180619060CF094C046E050E0BE01645E1A
:206860007F4FCE0140960E94F620CE0140960E94931E6A317105810591050CF086C046E060
:2068800050E0BE01645E7F4FCE0146960E94F620CE0146960E94931E81E011E0709326029B
:2068A00060932502882321F0CE0146960E94AE1F112321F0CE0140960E94AE1FCE01019629
:2068C0000E94AE1F10927B1910927C1910927D1910927E19109277191092781910927919D2
:2068E00010927A198AE896E00E94F11580912502909126020E9430178BEA96E00E94F115D6
:2069000080917F1990E00E942A1786EB96E00E94F11560916602709167028091680290918D
:20692000690244E050E00E94E4168DEB96E00E94F1156091A21B7091A31B8091A41B909108
