:200000000C9487060C9465570C943A570C940F570C94E4560C94B9560C948E560C946356BA
:200020000C9438560C94B8060C94B8060C94B8060C94B8060C94B8060C94B8060C94B80600
:200040000C94B8060C94B8060C94B8060C94B8060C94B8060C94B8060C94B8060C94EE552B
:200060000C94B8060C941A580C94F0570C94B8060C94B8060C94B8060C94B8060C94B80653
:200080000C94B8060C94B8060C94B8060C94B8060C94B8060C94B8060C94B8060C94505886
:2000A0000C94B8060C94B8060C94B8060C94B8060C94B8060C94B8060C94B8060C94B80650
:2000C0000C94B8060C94B8060C94B8060C94B8060C94B8060C94B8060C94BA570C949057B4
:2000E0000C94B806084AD73B3BCE016E84BCBFFDC12F3D6C74319ABD56833DDA3D00C77FC2
:2001000011BED9E4BB4C3E916BAAAABE000000803F000C948C0A0C9457070C9475080C9450
:2001200063700C942C070C9429070C9436070C94B06F0C9425070C942B130C9433700C9420
:20014000E46F0C947E0A0C94290A0C94123F0C9444070C94273A0C94D9140C94AE400C94B9
:2001600050700C947C430C9423350C94B3420C944E070C941E450C9476080C9458070C941E
:200180004A070C9440070C94380A0C94F5450C9432070C9469400C9403700C94F2060C94FE
:2001A00052070C94FB090C9414380C94CE0A0C9422400C94A80D0C94F80D0C94360B0C9461
:2001C000FC090C9472310C9498310C944A0E0C9417070C94FA3B0C9420700C94A4400C948F
:2001E000ED410C9474080C945C150C943C070C94693E0C941D070C94CB0D0C947D370C944A
:20020000C9700C94E6320C94B80D0C9421070C94A90D0C945C070C94B05C0C9488404E41C4
:200220004E494E495459494E46CDCCCC3D0AD7233C17B7D13877CC2B329595E6241FB14F5A
:200240000A000020410000C84200401C4620BCBE4CCA1B0E5AAEC59D7400407A10F35A00B9
:20026000A0724E18090010A5D4E80000E87648170000E40B54020000CA9A3B000000E1F515
:2002800005000080969800000040420F000000A08601000000102700000000E803000000D1
:2002A000006400000000000A00000000000100000000002C76D888DC674F0823DFC1DFAEE3
:2002C00059E1B1B796E5E3E453C63AE651997696E8E6C28426EB898C9B62ED407C6FFCEFD1
:2002E000BC9C9F40F2BAA56FA5F490055A2AF75C936B6CF9676DC11BFCE0E40D47FEF520C8
:20030000E6B500D0ED902E0300943577050080841E080000204E0A000000C80C333333333D
:200320000F986E12831141EF8D2114893BE65516CFFEE6DB18D1844B381BF77C1D901DA481
:20034000BBE424203284725E228100C9F124ECA1E53D2748494748004C4F57004F4B0053DE
:20036000544154453A494E484142494C495441444F0053544154453A484142494C495441B4
:20038000444F00206661756C74733D00206572723D00206465766963655F6572726F723DE2
:2003A00000207469636B3D0020616D703D0020636D3D002076616C69643D0020656E61624A
:2003C0006C65643D0020616464723D30780054462069643D0020526D413D00204C6D413D93
:2003E00000204C6D413D302E303020526D413D302E303000C2B0202864656661756C742905
:2004000000C2B0202843414C2900C2B0202864656661756C742900C2B0202843414C2900AE
:20042000202020524541523A202D005B42414C5D204C696D2046524F4E543A202B00202074
:20044000446561643DC2B10020204B643D005B42414C5D204B703D005B42414C5D20536554
:2004600074706F696E743A20005B42414C5D20416E74692D6361C3AD646120414354495694
:2004800041444F005B42414C5D204552524F523A204D5055206E6F20646973706F6E696296
:2004A0006C652E2056657269666963612049324320285344413D32302C2053434C3D323189
:2004C000292E005B42414C5D20416E74692D6361C3AD646120444553414354495641444F25
:2004E0000020206862206B64203C76616C6F723E2020202020202D20616A7573746172201E
:200500004B6420286D2F7320706F7220677261646F2F73290020206862206B70203C766134
:200520006C6F723E2020202020202D20616A7573746172204B7020286D2F7320706F722066
:20054000677261646F29002020686220737461742020202020202020202020202D20616EE3
:2005600067756C6F732C206C696D69746573207920706172616D6574726F7300202068620D
:20058000207265617220203C677261646F733E20202D2066696A6172206C696D69746520FA
:2005A0007472617365726F206D616E75616C6D656E746500202068622066726F6E74203CD5
:2005C000677261646F733E20202D2066696A6172206C696D6974652066726F6E74616C20EA
:2005E0006D616E75616C6D656E746500202068622063616C20726561722020202020202060
:20060000202D2063616C6962726172206C696D697465207472617365726F2028696E636C7B
:20062000696E61646F2061747261732900202068622063616C2066726F6E74202020202008
:2006400020202D2063616C6962726172206C696D6974652066726F6E74616C2028696E6391
:200660006C696E61646F206164656C616E74652900202068622063616C2020202020202042
:200680002020202020202D20726563616C6962726172206E65757472616C2028717569651F
:2006A000746F2079206E6976656C61646F290020206862206F66662020202020202020209E
:2006C000202020202D20646573616374697661720020206862206F6E202020202020202020
:2006E0002020202020202D206163746976617220616E74692D6361696461005B42414C5D91
:2007000020436F6D616E646F733A005B42414C5D204B64203D20005B42414C5D204B7020F6
:200720003D200020677264005B42414C5D204C696D697465205452415345524F3A202D002D
:200740005B42414C5D2072656172206465626520736572203E20300020677264005B424145
:200760004C5D204C696D6974652046524F4E54414C3A202B005B42414C5D2066726F6E74C1
:20078000206465626520736572203E20300020677264005B42414C5D20526563616C6962DB
:2007A0007261646F2E20536574706F696E743A20005B42414C5D204D5055206E6F20646912
:2007C00073706F6E69626C652E002067726420646573646520736574706F696E74005B42DA
:2007E000414C5D204C696D697465205452415345524F2063616C69627261646F3A202D0003
:200800005B42414C5D204552524F523A20696E636C696E6120656C20726F626F742048418F
:2008200043494120415452415320616E7465732064652063616C696272617220656C206C4F
:20084000696D697465207472617365726F2E005B42414C5D204D5055206E6F2064697370CC
:200860006F6E69626C652E002067726420646573646520736574706F696E74005B42414C8F
:200880005D204C696D6974652046524F4E54414C2063616C69627261646F3A202B005B425E
:2008A000414C5D204552524F523A20696E636C696E6120656C20726F626F74204841434900
:2008C00041204144454C414E544520616E7465732064652063616C696272617220656C20E4
:2008E0006C696D6974652066726F6E74616C2E005B42414C5D204D5055206E6F206469733A
:20090000706F6E69626C652E007466204641494C2064697361626C65206D6F746F727320D2
:2009200066697273740074662075736167653A20746620737461747573207C207466206F63
:200940006E20317C32207C207466206F666620317C320053544154453A424C4F5155454176
:20096000444F00202053544F503D4C4F572C204252414B453D464C4F41542C2050574D3D4E
:200980003000202053544F503D464C4F41542C204252414B453D464C4F41542C206C6973F6
:2009A000746F207061726120636F6D616E646F7300202053544F503D4C4F572C2042524146
:2009C0004B453D484947482C2050574D3D300053544154453A00204F523D00204F4C3D00CC
:2009E0002048523D0020484C3D0020523D00204C3D00204F523D00204F4C3D002048523DCA
:200A00000020484C3D00206C6174636865643D002070726F746563743D0020523D006E2018
:200A2000535441545553204C3D006E2050524F54454354205245534554006E2050524F5404
:200A4000454354204F4646006E2050524F54454354204F4E006E20434845434B006E205386
:200A6000454C46544553542050415353006D56006D5620204C3D005B435552525D204F66F0
:200A80006673657420523D005B435552525D2053656E736F72657320414353373132206975
:200AA0006E696369616C697A61646F730047505320494E49542053657269616C33204020CB
:200AC000002063686172733D002073656E74656E63655F6167655F6D733D00206167655F7F
:200AE0006D733D002068646F703D0020736174733D00206C6F6E3D00206C61743D0047200E
:200B00006669783D002074656D703D002070697463683D00207961773D0020677A3D0020BD
:200B200067793D002067783D0020617A3D002061793D002061783D00492072656164793DFC
:200B40000020526D413D00204C6D413D0020E2809420276862206F6E272070617261207240
:200B600065616374697661722E00203C206C696D3D2D005B42414C5D204341494441205463
:200B80005241534552412070697463685F6572723D0020E2809420276862206F6E2720709F
:200BA000617261207265616374697661722E00203E206C696D3D005B42414C5D2043414981
:200BC00044412046524F4E54414C2070697463685F6572723D0049444C450020523D006E02
:200BE0002054524950204C3D0000002100240027002A002D003000330001010000040107B9
:200C0000010A0100002200250028002B002E003100340002010000050108010B010000205D
:200C2000002300260029002C002F0032000001000003010601090105050505070508080867
:200C400008020202020A0A080804040404010101010101010103030303030303030407071E
:200C6000070C0C0C0C0C0C0C0C0202020206060606060606060B0B0B0B0B0B0B0B0102106A
:200C8000202008081020401020408002010201080402010102040810204080804020100898
:200CA00004020180040201804020100804020108040201010204081020408001020408107A
:200CC00020408000000A0B02090C0D0E0807030401000000000000000000000000000000D6
:200CE0000000000000000000000000000000001211100000000000000000000000000000C1
:200D000000000000000000000000B05CC97011241FBECFEFD1E2DEBFCDBF00E00CBF19E13D
:200D2000A0E0B2E0E8E9F5EF00E00BBF02C007900D92A431B107D9F72DE1A4E1B9E101C0FF
:200D40001D92A53DB207E1F716E0C6E8D6E000E006C021970109802FFE010E946D79C5387C
:200D6000D10780E00807A9F70E94145D0C94BA7A0C9400000F931F93CF93DF93FB0110824F
:200D8000CFE1DCE1E0E090E050E029912C32F1F02A3231F0222321F02D3011F02A3021F4ED
:200DA0009817B1F080E019C09813EFCFAE2FB0E08D010F5F1F4F041715073CF7A60FB71F75
:200DC0002C93EF5FE2CF9F5FE0E0DFCF9813FBCFE60FF72FF11D108281E0DF91CF911F91D8
:200DE0000F9108958091801B9091811B891B990B08958150823108F05AC0E82FF0E088273C
:200E0000EB5FF84F8F4F0C946D792507290717071D07210757072C07320736073C07400786
:200E200044074A074E075707520758075C07809180008F77809380000895809180008F7DE4
:200E4000F9CF80918000877FF5CF84B58F7784BD089584B58F7DFBCF8091B0008F77809369
:200E6000B00008958091B0008F7DF9CF809190008F77809390000895809190008F7DF9CF34
:200E800080919000877FF5CF8091A0008F778093A00008958091A0008F7DF9CF8091A000AA
:200EA000877FF5CF809120018F77809320010895809120018F7DF9CF80912001877FF5CF5D
:200EC000CF93DF93282F30E0F901ED53F34F8491F901E358F34FD491F901E95CF34FC49194
:200EE000CC23A1F081110E94F906EC2FF0E0EE0FFF1FE35EF34FA591B491EC91ED2381E04D
:200F000090E009F480E0DF91CF91089580E090E0FACF1F93CF93DF93282F30E0F901ED53D7
:200F2000F34F8491F901E358F34FD491F901E95CF34FC491CC23A9F0162F81110E94F906A8
:200F4000EC2FF0E0EE0FFF1FED5FF34FA591B4918FB7F894EC91111108C0D095DE23DC9374
:200F60008FBFDF91CF911F910895DE2BF8CFCF93DF9390E0FC01E358F34F2491895C934FFC
:200F8000FC0184918823C9F090E0880F991FFC01E751F44FA591B491FC01ED5FF34FC59148
:200FA000D49161110DC09FB7F8948C91209582238C938881282328839FBFDF91CF9108954B
:200FC000623051F49FB7F8943C91822F809583238C93E8812E2BEFCF8FB7F894EC912E2BD8
:200FE0002C938FBFEACF863308F0865320917B00982F9870277F922B90937B0087708064CA
:2010000080937C0080917A00806480937A0080917A0086FDFCCF80917800909179000895AC
:201020003FB7F89480917C1B90917D1BA0917E1BB0917F1B26B5A89B05C02F3F19F0019637
:20104000A11DB11D3FBFBA2FA92F982F8827BC01CD01620F711D811D911D42E0660F771FCC
:20106000881F991F4A95D1F708958F929F92AF92BF92CF92DF92EF92FF926B017C010E947A
:2010800010084B015C01C114D104E104F104B9F00E941008681979098A099B09683E734015
:2010A0008105910580F321E0C21AD108E108F10888EE880E83E0981EA11CB11CE4CFFF9018
:2010C000EF90DF90CF90BF90AF909F908F9008952FB7F8946091781B7091791B80917A1B19
:2010E00090917B1B2FBF0895089508958F929F92AF92BF92CF92DF92EF92FF920F931F9358
:201100000E9410086B017C0140913319509134196091351970913619809153029091540275
:201120008D3391050CF43FC0863591050CF440C084EC99E0A0E0B0E0809033199090341947
:20114000A0903519B090361989288A288B28A9F197018601041B150B260B370BB901A8019E
:20116000481759076A077B0740F580912B1990912C19A0912D19B0912E190196A11DB11DAB
:2011800080932B1990932C19A0932D19B0932E191F910F91FF90EF90DF90CF90BF90AF90D3
:2011A0009F908F90089580EE9EE2A0E0B0E0C4CF80E797E1A0E0B0E0BFCFC0923319D09236
:2011C0003419E0923519F092361920912C1B30912D1B2F5F3F4F30932D1B20932C1B40913E
:2011E000171C5091181C6091191C70911A1C4F5F5F4F6F4F7F4F4093171C5093181C609352
:20120000191C70931A1C4091431950914419609145197091461997018601041B150B260BB7
:20122000370BB901A8018090431990904419A0904519B090461989288A288B2829F0481765
:2012400059076A077B0718F18091431990914419A0914519B0914619892B8A2B8B2B79F090
:20126000403412E451071FE06107710540F440933B1950933C1960933D1970933E19C09247
:201280004319D0924419E0924519F092461980918F1981118CC08091171A9091181AA09125
:2012A000191AB0911A1A892B8A2B8B2B09F47FC08091171A9091181AA091191AB0911A1ABD
:2012C00046015701881A990AAA0ABB0A20E4821622E492062FE0A206B10408F068C08091DA
:2012E0000F1A9091101AA091111AB091121A892B8A2B8B2B09F464C080910F1A9091101AEC
:20130000A091111AB091121A88169906AA06BB0608F456C020910F1A3091101A4091111A83
:201320005091121AA3E0B0E00E946D77680D791D8A1D9B1D22E096958795779567952A958D
:20134000D1F760930F1A7093101A8093111A9093121A20910F1A3091101A4091111A50914D
:20136000121AA8E0B2E00E946D7728EE33E040E050E00E944B7921348CE93807410551051D
:2013800020F020E43CE940E050E0243C09E030074105510520F424EC39E040E050E0209368
:2013A0001D0230931E0240931F0250932002C092171AD092181AE092191AF0921A1AE8CE0A
:2013C00080920F1A9092101AA092111AB092121AC0CFFC01248135816217730748F48081A4
:2013E0009181009729F0860F971FFC018081089580E0089508950895AF92BF92CF92DF92AA
:20140000EF92FF920F931F93CF93DF936C017B018B01040F151FEB015E01AE18BF08C01727
:20142000D10759F06991D601ED91FC910190F081E02DC6011995892B79F7C501DF91CF9171
:201440001F910F91FF90EF90DF90CF90BF90AF900895FC01538D448D252F30E0842F90E000
:20146000821B930B541710F0CF96089501970895FC01918D828D981761F0A28DAE0FBF2F8B
:20148000B11D5D968C91928D9F5F9F73928F90E008958FEF9FEF08950F931F930E94680802
:2014A0006093281D7093291D80932A1D90932B1D80E29DE10E94380A97FF1DC00E9468089D
:2014C0000091281D1091291D20912A1D30912B1D601B710B820B930B0091241D1091251D77
:2014E0002091261D3091271D6017710782079307F8F28FEF9FEF1F910F910895FC01918DE3
:20150000828D981731F0828DE80FF11D858D90E008958FEF9FEF0895FC01918D228D892F8E
:2015200090E0805C9F4F821B91098F739927089583E89CE10E948C0A21E0892B09F420E009
:20154000822F089580E29DE10E948C0A21E0892B09F420E0822F0895FC01A48DA80FB92F58
:20156000B11DA35ABF4F2C91848D90E001968F739927848FA689B7892C93A089B1898C913A
:20158000837080648C93938D848D981306C00288F389E02D80818F7D80830895EF92FF92E1
:2015A0000F931F93CF93DF93EC0181E0888F9B8D8C8D98131AC0E889F989808185FF15C08B
:2015C0009FB7F894EE89FF896083E889F98980818370806480839FBF81E090E0DF91CF917A
:2015E0001F910F91FF90EF900895F62E0B8D10E00F5F1F4F0F731127E02E8C8D8E110CC01C
:201600000FB607FCFACFE889F989808185FFF5CFCE010E94AC0AF1CFEB8DEC0FFD2FF11D69
:20162000E35AFF4FF0829FB7F8940B8FEA89FB8980818062CFCF0F931F93CF93DF938C0104
:20164000D0E0C0E0F801EC0FFD1F6491662341F080E29DE10E94CE0A892B11F02196F2CFF4
:20166000CE01DF91CF911F910F910895CF93DF93EC01888D8823B9F0AA89BB89E889F9894A
:201680008C9185FD03C0808186FD0DC00FB607FCF7CF8C9185FFF2CF808185FFEDCFCE0197
:2016A0000E94AC0AE9CFDF91CF91089580E090E0892B29F00E94A20A81110E94000080E02E
:2016C00090E0892B49F080E090E0892B29F00E94000081110E94000080E090E0892B49F07D
:2016E00080E090E0892B29F00E94000081110E94000080E090E0892B29F00E94980A811104
:201700000C94000008952091EC19260F3327331F21323105ECF42091C91BFC0190E080E02A
:20172000243069F082E00895A091EC192191AC014453564EA40FB52FB11D2C9301968617D5
:2017400098F38091EC19680F6093EC1980E0089581E008951092C91B81E08093C81B1092FF
:20176000A31B61E084E10E94890761E085E10E948907E9EBF0E080818E7F808380818D7F38
:20178000808388E48093B80085E48093BC000895CF93DF9391E09093A21B8823B9F0C09170
:2017A000B800D091BA008091BC008A7B8093BC0060E084E10E94890760E085E10E94890706
:2017C0000E94AA0BD093BA00C093B800DF91CF9108958F929F92AF92BF92CF92DF92EF92E6
:2017E000FF920F931F93CF93DF93D091F21BD13208F0D7C0182FC091F11B0E9410086B0166
:201800007C018091C91B81116BC082E08093C91B1093C81B8FEF8093C71B1092C61BD09361
:20182000C51BA1EDBBE1E5EAFBE180E0D81391C01092A41B8091A41BCC0FC82BC093A41B46
:201840008091A31B813009F088C01092A31B0E9410086B017C018091A41B8093BB00809115
:20186000CB1B9091CC1BA091CD1BB091CE1B892B8A2B8B2BA1F00E9410080091CB1B1091B5
:20188000CC1B2091CD1B3091CE1B6C197D098E099F09061717072807390708F442C080911B
:2018A000BC0083FDD8CF85EC8093BC000E9410086B017C018091C91B823009F450C080919D
:2018C000C71B8F3F09F46FC08091C71B803209F46CC08091C71B803309F469C084E026C048
:2018E0008091CB1B9091CC1BA091CD1BB091CE1B892B8A2B8B2B09F484CF0E94100880906D
:20190000CB1B9090CC1BA090CD1BB090CE1B6C197D098E099F0986169706A806B90608F0B1
:2019200070CF8091CA1B0E94C80B85E01092D01B1092F21B1092CF1BDF91CF911F910F91B0
:20194000FF90EF90DF90CF90BF90AF909F908F9008959D9191938F5F69CF85EEA5CF8091C2
:20196000CB1B9091CC1BA091CD1BB091CE1B892B8A2B8B2B09F49ECF0E9410080091CB1B7C
:201980001091CC1B2091CD1B3091CE1B6C197D098E099F09061717072807390708F08ACF37
:2019A000C0CF81E0C3CF80E0C1CF82E0BFCF83E0BDCFCF92DF92EF92FF920F931F93CF933C
:2019C000DF93D82FC62F613208F098C00E9410086B017C018091C91B81116BC081E08093ED
:2019E000C91B8093C81B9FEF9093C71B1092C61B9C0F9093C51B8093A41B8091A41BDD0FBB
:201A0000D82BD093A41B8091A31B813009F078C01092A31B0E9410086B017C018091A41B1D
:201A20008093BB008091CB1B9091CC1BA091CD1BB091CE1B892B8A2B8B2BA1F00E9410082C
:201A40000091CB1B1091CC1B2091CD1B3091CE1B6C197D098E099F09061717072807390750
:201A600008F448C08091BC0083FDD8CF85EC8093BC000E9410086B017C018091C91B8130E5
:201A800009F440C08091C61B8C1710F4C091C61BE5EAFBE1A2E8BBE180E08C1355C08C2FDE
:201AA000DF91CF911F910F91FF90EF90DF90CF9008958091CB1B9091CC1BA091CD1BB09134
:201AC000CE1B892B8A2B8B2B09F484CF0E9410080091CB1B1091CC1B2091CD1B3091CE1BB2
:201AE0006C197D098E099F09061717072807390708F070CF8091CA1B0E94C80BC0E0CFCF12
:201B000085EEB5CF8091CB1B9091CC1BA091CD1BB091CE1B892B8A2B8B2B09F4AECF0E9451
:201B200010080091CB1B1091CC1B2091CD1B3091CE1B6C197D098E099F0906171707280797
:201B4000390708F09ACFD6CF91919D938F5FA5CF0895E091811B8091801BE81730F4F0E042
:201B6000EE57F44E808190E008958FEF9FEF08959091811B8091801B2FEF3FEF981748F487
:201B8000E92FF0E0EE57F44E208130E09F5F9093811BC9010895CF92DF92EF92FF920F937B
:201BA0001F93CF93DF937C01CB018A012091CF1B222389F0EB016B01C40ED51ECC15DD0592
:201BC00069F06991D701ED91FC910190F081E02DC7011995F3CF642F0E94830BC801DF918C
:201BE000CF911F910F91FF90EF90DF90CF900895CF93DF931F92CDB7DEB769832091CF1B97
:201C00002223F9F02091F21B203258F021E030E0FC013383228390E080E00F90DF91CF9196
:201C200008958091D01BE82FF0E0EF52F44E998190838F5F8093D01B8093F21B81E090E097
:201C4000ECCF61E0CE0101960E94830BF7CFCF939091A21B1092A21BC1E0C093CF1B80939C
:201C6000F11B1092D01B1092F21B8DEB9DE10E94F80D61E08DEB9DE10E94F80D81E00E949E
:201C8000E90B811105C08091A21B8C27CF91089580E0FCCF90E080E008958F929F92AF9250
:201CA000BF92CF92DF92EF92FF926B017C0183E0C816D104E104F10420F1A4E9B1E10E9444
:201CC0006D774B015C01A0E1BEE0A70196010E946D7786169706A806B906A8F0A8E1B5E136
:201CE0000E946D77681579058A059B0570F081E0FF90EF90DF90CF90BF90AF909F908F90BB
:201D0000089580E0F5CF82E0F3CF83E0F1CF8F929F92AF92BF92CF92DF92EF92FF920F9351
:201D20001F93CF93DF936B017C01EA01890120E030E0A9010E944676181644F0F8011082BA
:201D4000118212821382D0E0C0E02AC0BE010D2E000C880B990B0E944D764B015C01A7019A
:201D600096010E944676F8011816CCF1108211821282138220E030E0A901C701B6010E9461
:201D8000357920E030E040E05FE387FD17C0C701B6010E9488770E94D8786C177D079CF41F
:201DA000CE01DF91CF911F910F91FF90EF90DF90CF90BF90AF909F908F900895C701B60160
:201DC0000E948777E8CF41E06F3F710509F00CF440E0EB01442321F3CFEFD0E0E1CF208128
:201DE000318142815381C701B6010E9488776B017C012FE632E143E85AE30E9488779B01C4
:201E0000AC01C501B4010E944676181634F4F801C082D182E282F38296CFA5019401C70117
:201E2000B6010E948777F8016083718382839383B7CF1092CA198091801A9091811AA091BD
:201E4000821AB091831AB0588093C6199093C719A093C819B093C9191092C2191092C319D7
:201E60001092C4191092C5191092531910925419109255191092561910924F191092501910
:201E800010925119109252191092BA191092BB191092BC191092BD191092BE191092BF195C
:201EA0001092C0191092C11908951092C91A1092CA1A1092CB1A1092CC1A1092C51A109251
:201EC000C61A1092C71A1092C81A1092B1191092B2191092B3191092B4191092B519109253
:201EE000B6191092B7191092B81910924B1910924C1910924D1910924E191092741910923F
:201F00006F191092701910927119109272191092731910926B1910926C1910926D19109270
:201F20006E198FEF9FEF909303028093020290930102809300020C94190F109279191092F6
:201F40007A1910927B1910927C191092751910927619109277191092781910925F191092FF
:201F60006019109261191092621910925B1910925C1910925D1910925E191092571910929D
:201F800058191092591910925A1910926719109268191092691910926A1910926319109259
:201FA000641910926519109266191092D71A1092D81A1092D91A1092DA1A1092CF1A1092E4
:201FC000D01A1092D11A1092D21A1092CE1A1092CD1A1092DB1A1092DC1A1092DD1A10927F
:201FE000DE1A1092D31A1092D41A1092D51A1092D61A0895FC01168A648B138A80899189BE
:202000008F3F980719F00196918B808B28513C4F4F4F5F4F2083318342835383089510920B
:20202000071C1092081C1092091C10920A1C1092031C1092041C1092051C1092061C10927C
:20204000F71B1092F81B1092F91B1092FA1B1092F31B1092F41B1092F51B1092F61B1092E4
:20206000131C1092141C1092151C1092161C089580917B1A811180912B1A0895CF93C62F99
:202080009091610221E02093CF1B9093F11B1092D01B1092F21B682F8DEB9DE10E94F80D7F
:2020A0006C2F8DEB9DE10E94F80D81E0CF910C94E90BF89410922F1B10922E1B10922D1B46
:2020C00010922C1B10921B1C10921C1C10921D1C10921E1C1092171C1092181C1092191C2B
:2020E00010921A1C10921B1A10921C1A10921D1A10921E1A1092171A1092181A1092191A2A
:2021000010921A1A1092131A1092141A1092151A1092161A10920F1A1092101A1092111A43
:202120001092121A10924719109248191092491910924A19109243191092441910924519C6
:202140001092461910923F1910924019109241191092421910923B1910923C1910923D19AB
:2021600010923E1910923719109238191092391910923A19109233191092341910923519CB
:202180001092361910922F1910923019109231191092321910922B1910922C1910922D19EB
:2021A00010922E1978940E9468086093231A7093241A8093251A9093261A0E9468086093ED
:2021C0001F1A7093201A8093211A9093221A1092DB1A1092DC1A1092DD1A1092DE1A1092D8
:2021E000D31A1092D41A1092D51A1092D61A08954F925F926F927F928F929F92AF92BF92DA
:20220000CF92DF92EF92FF92CF93DF93CDB7DEB72C970FB6F894DEBF0FBECDBF0E946808D1
:2022200069837A838B839C830E94100869877A878B879C878091231A9091241AA091251A8B
:20224000B091261A29813A814B815C81281B390B4A0B5B0BDA01C90184369105A105B1055C
:2022600008F4C6C0F894E0912E1BF0912F1B10922F1B10922E1B40903F19509040196090A3
:202280004119709042198091471990914819A0914919B0914A1978942091231A3091241A66
:2022A0004091251A5091261A2D833E834F8358878090DB1A9090DC1AA090DD1AB090DE1A51
:2022C0000097A105B10509F4A2C1411451046104710409F49CC1C984DA84EB84FC84C81A51
:2022E000D90AEA0AFB0AA3E0B0E0A30192010E946D77613432E473073FE08307910520F0BE
:2023000060E472E48FE090E0603E43E9740744E08407910520F460EE73E984E090E06C15A7
:202320007D058E059F0508F472C1E330F10508F452C1C980DA80EB80FC808D819E81AF81B6
:20234000B885C81AD90AEA0AFB0A09F444C1BF0190E080E00E944B7620E030E64AE657E40C
:202360000E94AC762B013C01C701B6010E944B7620E030E044E352E40E94AC769B01AC01D4
:20238000C301B2010E9466786B017C01412C512C612C3FE3732E20E030E0A901C501B401EE
:2023A0000E944676181684F4A5019401C701B6010E948777A30192010E94AC76A501940189
:2023C0000E9488776B017C01C092DB1AD092DC1AE092DD1AF092DE1A29813A814B815C81E3
:2023E0002093231A3093241A4093251A5093261A80911F1A9091201AA091211AB091221A29
:2024000029813A814B815C81281B390B4A0B5B0BDA01C90184369105A105B10508F4C6C099
:20242000F894E0912C1BF0912D1B10922D1B10922C1B40903B1950903C1960903D1970901D
:202440003E198091431990914419A0914519B0914619789420911F1A3091201A4091211A0E
:202460005091221A2D833E834F8358878090D31A9090D41AA090D51AB090D61A0097A10586
:20248000B10509F4E4C0411451046104710409F4DEC0C984DA84EB84FC84C81AD90AEA0A73
:2024A000FB0AA3E0B0E0A30192010E946D77613432E473073FE08307910520F060E472E439
:2024C0008FE090E0603E43E9740744E08407910520F460EE73E984E090E06C157D058E056B
:2024E0009F0508F4B4C0E330F10508F494C0C980DA80EB80FC808D819E81AF81B885C81A69
:20250000D90AEA0AFB0A09F486C0BF0190E080E00E944B7620E030E64AE657E40E94AC7664
:202520002B013C01C701B6010E944B7620E030E044E352E40E94AC769B01AC01C301B2015F
:202540000E9466786B017C01412C512C612C9FE3792E20E030E0A901C501B4010E944676DF
:20256000181684F4A5019401C701B6010E948777A30192010E94AC76A50194010E94887784
:202580006B017C01C092D31AD092D41AE092D51AF092D61A29813A814B815C8120931F1AF6
:2025A0003093201A4093211A5093221A2C960FB6F894DEBF0FBECDBFDF91CF91FF90EF900A
:2025C000DF90CF90BF90AF909F908F907F906F905F904F900895C301B2010E944B7620E0FE
:2025E00030E044E352E40E94AC769B01AC0160EC71EE84E69CE40E9466786B017C0123E35D
:20260000422E542C23EB622E2EE3722EC4CEC12CD12C7601D9CEC301B2010E944B7620E007
:2026200030E044E352E40E94AC769B01AC0160EC71EE84E69CE40E9466786B017C0183E3BC
:20264000482E542C83EB682E8EE3782E82CFC12CD12C760197CF8F929F92AF92BF92CF920C
:20266000DF92EF92FF920F931F930E9410086B017C01409137195091381960913919709149
:202680003A198091590290915A028D3391050CF43FC0863591050CF440C084EC99E0A0E0EF
:2026A000B0E08090371990903819A0903919B0903A1989288A288B28A9F197018601041BB6
:2026C000150B260B370BB901A801481759076A077B0740F580912F1990913019A0913119DF
:2026E000B09132190196A11DB11D80932F1990933019A0933119B09332191F910F91FF907A
:20270000EF90DF90CF90BF90AF909F908F90089580EE9EE2A0E0B0E0C4CF80E797E1A0E003
:20272000B0E0BFCFC0923719D0923819E0923919F0923A1920912E1B30912F1B2F5F3F4F6C
:2027400030932F1B20932E1B40911B1C50911C1C60911D1C70911E1C4F5F5F4F6F4F7F4F02
:2027600040931B1C50931C1C60931D1C70931E1C40914719509148196091491970914A19A1
:2027800097018601041B150B260B370BB901A8018090471990904819A0904919B0904A19DF
:2027A00089288A288B2829F0481759076A077B0718F18091471990914819A0914919B09168
:2027C0004A19892B8A2B8B2B79F0403412E451071FE06107710540F440933F1950934019D4
:2027E0006093411970934219C0924719D0924819E0924919F0924A1980918F198111BBC03A
:2028000080911B1A90911C1AA0911D1AB0911E1A892B8A2B8B2B09F4AEC080911B1A909149
:202820001C1AA0911D1AB0911E1A46015701881A990AAA0ABB0A20E4821622E492062FE0DB
:20284000A206B10408F097C08091131A9091141AA091151AB091161A892B8A2B8B2B09F452
:2028600093C08091131A9091141AA091151AB091161A88169906AA06BB0608F485C0209107
:20288000131A3091141A4091151A5091161AA3E0B0E00E946D77680D791D8A1D9B1D22E006
:2028A00096958795779567952A95D1F76093131A7093141A8093151A9093161A8091131A1E
:2028C0009091141AA091151AB091161A803533EC9307A105B10508F060C0883709E69007B1
:2028E000A105B10508F05CC0803E1EE29107A105B10508F058C080349F41A105B10508F0BE
:2029000055C0AEE5B1E02091131A3091141A4091151A5091161AB0901C020E946D7728EEA6
:2029200033E040E050E00E944B79AB2DB0E00E946D7724E630E040E050E00E944B792134BB
:202940008CE938074105510520F020E43CE940E050E0243C09E030074105510520F424EC5E
:2029600039E040E050E020932102309322024093230250932402C0921B1AD0921C1AE0929F
:202980001D1AF0921E1AB9CE8092131A9092141AA092151AB092161A91CFAAE8B2E0B3CF57
:2029A000A4EFB1E0B0CFA2ECB1E0ADCFA7E7B1E0AACFCF92DF92EF92FF920F931F930E9467
:2029C0001008AB01BC018091A8199091A919A091AA19B091AB190196A11DB11D8093A819D1
:2029E0009093A919A093AA19B093AB190091901910919119209192193091931980911D0277
:202A000090911E02A0911F02B09120026A017B01C01AD10AE20AF30A9701860108171907DD
:202A20002A073B07A8F180910B1B90910C1BA0910D1BB0910E1B0196A11DB11D80930B1BEC
:202A400090930C1BA0930D1BB0930E1B8091A0199091A119A091A219B091A3190196A11D82
:202A6000B11D8093A0199093A119A093A219B093A319409390195093911960939219709348
:202A800093191F910F91FF90EF90DF90CF9008958091981990919919A0919A19B0919B1953
:202AA0000196A11DB11D8093981990939919A0939A19B0939B19E5CFCF92DF92EF92FF92E5
:202AC0000F931F930E941008AB01BC018091AC199091AD19A091AE19B091AF190196A11D6C
:202AE000B11D8093AC199093AD19A093AE19B093AF19009194191091951920919619309194
:202B000097198091210290912202A0912302B09124026A017B01C01AD10AE20AF30A9701B2
:202B20008601081719072A073B07A8F180910F1B9091101BA091111BB091121B0196A11D1C
:202B4000B11D80930F1B9093101BA093111BB093121B8091A4199091A519A091A619B0916F
:202B6000A7190196A11DB11D8093A4199093A519A093A619B093A7194093941950939519BB
:202B800060939619709397191F910F91FF90EF90DF90CF90089580919C1990919D19A09149
:202BA0009E19B0919F190196A11DB11D80939C1990939D19A0939E19B0939F19E5CF89EA95
:202BC000809320018BE08093210110922D0110922C0110922B0110922A0110922901109279
:202BE000280161E08CE20E94B70761E08DE20E94B70761E08EE20C94B707FC0101900020D0
:202C0000E9F73197AF01481B590BBC0180E29DE10C94FC0986EB92E00C94FD15CF93DF93EA
:202C20000E941B0BEC010E940A168C0F9D1FDF91CF9108951092C41A1092AD1A1092AE1A06
:202C40001092AF1A1092B01A83EC94E00C940E168F929F92AF92BF920F931F93CF93DF93EA
:202C6000CDB7DEB7A1970FB6F894DEBF0FBECDBF19A2423008F44AE08E010F5D1F4F842E4E
:202C8000912CB12CA12CA50194010E944B79E62FB901CA01EA30F4F4E05DD801EE938D016B
:202CA000232B242B252B79F790E080E0109719F0CD010E94FD15A1960FB6F894DEBF0FBEC3
:202CC000CDBFDF91CF911F910F91BF90AF909F908F900895E95CE1CF0C942816AB01682FB9
:202CE00070E090E080E00C946C16CF93DF93D0E0C0E0009719F00E94FD15EC010E940A166B
:202D00008C0F9D1FDF91CF910895009711F00C94FD1590E080E00895CF93DF934AE00E9498
:202D20002816EC010E940A168C0F9D1FDF91CF910895BC0190E080E04AE00C9428164F926C
:202D40005F926F927F928F929F92AF92BF92CF92DF92EF92FF920F931F93CF936B017C0109
:202D6000742EAC019B010E944679882399F089EB92E0CF911F910F91FF90EF90DF90CF9061
:202D8000BF90AF909F908F907F906F905F904F900C94FD1546015701E894B7F82FEF3FEFB3
:202DA0004FE75FE7C501B4010E94467981110DC02FEF3FEF4FE75FE7C501B4010E944676BB
:202DC00018161CF48DEB92E0D4CF2FEF3FEF4FE75FE4C701B6010E94357918161CF481ECE9
:202DE00092E0C7CF2FEF3FEF4FE75FECC701B6010E94467687FDF3CF20E030E0A901C70159
:202E0000B6010E94467610E000E087FF0AC06DE280E29DE10E94CE0A8C01F7FAF094F7F8E3
:202E2000F094C0E060E070E080E09FE37C1641F020E030E040E251E40E946678CF5FF6CF5F
:202E4000A70196010E9488772B013C010E94DF784B015C014AE00E9428167C01E00EF11E03
:202E6000CC23A9F1C501B4010E944B769B01AC01C301B2010E9487774B015C016EE280E230
:202E80009DE10E94CE0AE80EF91EC15000F120E030E040E251E4C501B4010E94AC762B0159
:202EA0003C010E94DF784B01CB010E949916E80EF91EB40190E080E00E944B769B01AC0135
:202EC000C301B2010E9487774B015C01DECFC701CF911F910F91FF90EF90DF90CF90BF90E2
:202EE000AF909F908F907F906F905F904F9008950C949F16CF93DF930E949F16EC010E94BD
:202F00000A168C0F9D1FDF91CF910895CF93DF930E949916EC010E940A168C0F9D1FDF9132
:202F2000CF910895CF92DF92EF92FF92CF93DF9397FF1BC06B017C016DE280E29DE10E94B1
:202F4000CE0AEC0166277727CB016C197D098E099F094AE00E9428168C0F9D1FDF91CF913A
:202F6000FF90EF90DF90CF9008954AE0DF91CF91FF90EF90DF90CF900C942816BC01990FBF
:202F8000880B990B0C949217CF93DF930E94BE17EC010E940A168C0F9D1FDF91CF910895F3
:202FA000EF92FF920F931F93CF93DF93E82EF12C27E1829FE0011124CC5BD44E1E89112341
:202FC00089F00E9468080C811D812E813F81601B710B820B930B11E0653F71408105910548
:202FE00008F010E08EEC93E00E941B0BC70101960E94BE1785EC93E00E941B0B87E18E9D1F
:20300000E0018F9DD00D1124CC5BD44E60E170E08A890E946E168BEB93E00E941B0B8D89B7
:2030200090E00E94BE1783EB93E00E941B0B812F90E00E94BE178EEA93E00E941B0B8885A9
:2030400099850E94991688EA93E00E941B0B8A859B850E94991681EA93E00E941B0B8C851D
:203060009D850E94991682E993E00E941B0B8E859F850E9499168CE893E00E941B0B6AE0B6
:2030800070E08C890E946E1683E893E00E941B0B88899989DF91CF911F910F91FF90EF909E
:2030A0000C948617E0E2F1E090819860908390E090932D0180932C010895CF93DF93EC01C5
:2030C0008F3F910519F014F0CFEFD0E0D7FF02C0D0E0C0E0CE010197099710F4CAE0D0E0C4
:2030E0008091530290915402892BE9F42097D9F0C83208F03FC0C33208F041C0CE3108F00C
:2031000043C0C93108F045C0C43108F047C080E49CE9A0E0B0E080931D0290931E02A09320
:203120001F02B0932002D0935402C09353026093550281E0209709F080E080935602809171
:20314000570281110AC080915802882331F08EE10E9489078C2F0E9452180E946808609316
:20316000401B7093411B8093421B9093431BDF91CF91089584E699E1A0E0B0E0CCCF8CE438
:203180009DE1A0E0B0E0C7CF80E692E2A0E0B0E0C2CF88EF9AE2A0E0B0E0BDCF80EB96E31D
:2031A000A0E0B0E0B8CFCF92DF92EF92FF920F931F93CF938C01C62FF894623008F079C00D
:2031C000C0901B1CD0901C1CE0901D1CF0901E1C789461E0CC2349F060E0C13009F472C098
:2031E00061E0C23009F06EC060E084E30E948907809120018068809320018CE390E090934C
:2032000029018093280180E00E945218D801ED91FC9160817181828193810E94DF780E9473
:20322000350880912001806880932001109229011092280180E00E945218F894C23008F08A
:2032400051C080911B1C90911C1CA0911D1CB0911E1C7894BC01CD016C197D098E099F09F6
:203260000E944B76D8011296ED91FC9120813181428153810E9466786B017C01D801ED91B5
:20328000FC91208131814281538160E070E68AE697E40E9466789B01AC01C701B6010E944C
:2032A000AC76CF911F910F91FF90EF90DF90CF900895C090171CD090181CE090191CF09087
:2032C0001A1C86CF8EE10E9489078CE30E945218809120018068809320011092290110928B
:2032E000280194CF8091171C9091181CA091191CB0911A1CAECFEF92FF920F931F93CF9387
:20330000DF93C82F042FE52E122F8091A21B1092A21B81E08093CF1BC093F11B1092D01B46
:203320001092F21B8DEB9DE10E94F80D80E00E94E90B81112AC08091A21B811126C0612FF9
:203340008C2F0E94D90CC82F1092811B8093801B181304C08091A21B882349F08091811BFA
:20336000C81799F08DEB9DE10E94B80DF7CFF02EC02FDE2D8DEB9DE10E94B80D89938C2F76
:203380008F198117B8F381E001C080E0DF91CF911F910F91FF90EF900895CF93C0916102DF
:2033A00081E08093CF1BC093F11B1092D01B1092F21B65E78DEB9DE10E94F80D80E00E9429
:2033C000E90B61E08C2F0E94D90C1092811B8093801B882321F08DEB9DE10E94B80DCF9111
:2033E0000895EF92FF921F93CF93DF937C01C091610281E08093CF1BC093F11B1092D01B1D
:203400001092F21B6BE38DEB9DE10E94F80D80E00E94E90B6EE08C2F0E94D90C182F1092A3
:20342000811B8093801BE7018EE0E80EF11C8091811B181741F08DEB9DE10E94B80D899363
:20344000EC16FD06A1F7DF91CF911F91FF90EF9008954F925F926F927F928F929F92AF922D
:20346000BF92CF92DF92EF92FF920F931F93CF93DF93CDB7DEB76A970FB6F894DEBF0FBE1A
:20348000CDBF80917B1A882309F47FC185EC92E00E94751680EF92E00E94851688EC90E000
:2034A0000E94BE178BEF92E00E94751608EC10E0C12CD12C7601812C912C5401412C512C8E
:2034C00032011F8A188E198E1A8E1B8A1C8A1D8A1E8A1F86188A198A1A8ACE0101960E94EB
:2034E000F11989819A81982789279827092E000CAA0BBB0B2F85388949895A89280F391FF8
:203500004A1F5B1F2F87388B498B5A8B8B819C81982789279827092E000CAA0BBB0B2B89CD
:203520003C894D895E89280F391F4A1F5B1F2B8B3C8B4D8B5E8B8D819E81982789279827FE
:20354000092E000CAA0BBB0B2F89388D498D5A8D280F391F4A1F5B1F2F8B388F498F5A8FBF
:2035600089859A85982789279827092E000CAA0BBB0B480E591E6A1E7B1E8B859C85982754
:2035800089279827092E000CAA0BBB0B880E991EAA1EBB1E8D859E85982789279827092E76
:2035A000000CAA0BBB0BC80ED91EEA1EFB1E65E070E080E090E00E9435080150110909F0EE
:2035C0008CCFC301B2010E944D7620E030E048E453E40E9466786093671A7093681A8093B5
:2035E000691A90936A1AC501B4010E944D7620E030E048E453E40E9466786093631A70935B
:20360000641A8093651A9093661AC701B6010E944D7620E030E048E453E40E94667860932D
:203620005F1A7093601A8093611A9093621A6F85788989899A890E944D7620E030E048E49C
:2036400053E40E9466786093731A7093741A8093751A9093761A6B897C898D899E890E9475
:203660004D7620E030E048E453E40E94667860936F1A7093701A8093711A9093721A6F8946
:20368000788D898D9A8D0E944D7620E030E048E453E40E94667820E030E040E056E40E9484
:2036A000877760936B1A70936C1A80936D1A90936E1A88E093E00E94751687E293E00E9440
:2036C00085166091671A7091681A8091691A90916A1A41E050E00E94781780E493E00E9426
:2036E00085166091631A7091641A8091651A9091661A41E050E00E94781784E493E00E9412
:20370000851660915F1A7091601A8091611A9091621A41E050E00E947A1788E493E00E94FB
:2037200085166091731A7091741A8091751A9091761A41E050E00E94781780E493E00E9495
:20374000851660916F1A7091701A8091711A9091721A41E050E00E94781784E493E00E9481
:20376000851660916B1A70916C1A80916D1A90916E1A41E050E00E947A171092801A10920E
:20378000811A1092821A1092831A6A960FB6F894DEBF0FBECDBFDF91CF911F910F91FF901B
:2037A000EF90DF90CF90BF90AF909F908F907F906F905F904F9008950E943810811104C027
:2037C00084E894E00C940E160E94291A8091BA1A9091BB1AA091BC1AB091BD1A8093B61A83
:2037E0009093B71AA093B81AB093B91A1092B11A81E08093C41A1092AD1A1092AE1A109286
:20380000AF1A1092B01A89E694E00E940E1688E594E00E941B0B6091B61A7091B71A80917D
:20382000B81A9091B91A42E050E00E94781780EB92EC0E94C4178EE494E00E941B0B60913A
:203840004702709148028091490290914A0244E050E00E94781788E494E00E941B0B6091ED
:20386000430270914402809145029091460244E050E00E9478178EE394E00E941B0B41E0A8
:2038800050E060E070E080EC9FE30E94781780EB92EC0E94C4178BE294E00E941B0B609149
:2038A0004F0270915002809151029091520241E050E00E94781780917E1981111BC08AE08A
:2038C00094E00E941B0B80E294E00E941B0B60914B0270914C0280914D0290914E0241E08F
:2038E00050E00E94781780917D19811106C084EF93E068CF87E194E0E4CF81E094E062CFB6
:20390000E0E2F1E0808180688083109229011092280180E00E94521861E082E30E94B7071F
:2039200061E082E30E94890761E08CE10E94B70761E08CE10E94890761E080E30E94B707BD
:2039400060E080E30E94890761E08AE10E94B70760E08AE10C9489070E94DF15E0E2F1E082
:20396000808180688083109229011092280180E00E94521861E082E30E94B70761E082E3AC
:203980000E94890761E08CE10E94B70761E08CE10E94890768EC70E080E090E00E943508B4
:2039A00060E082E30E94B70760E08CE10E94B70760E080E30E94B70760E08AE10E94B707E7
:2039C00082E090E09093C31A8093C21AA9E5B2E081E015968C931597E3E5F2E085831396E4
:2039E0001C921397138214961C92149714821D921C921182108282E793E00C940E16EF929E
:203A0000FF920F931F93CF93DF937C018B018091C21A9091C31A029711F00E94AC1CE7010D
:203A2000CF3FD10519F014F0CFEFD0E0CA30D10514F4CAE0D0E061E080E30E94B70760E0B1
:203A400080E30E94890761E082E30E94B70761E082E30E94890780912001806880932001A5
:203A6000109229011092280160E08AE10E94B70761E08CE10E94B70760E08CE10E948907B7
:203A800060E08EE10E948907F89480912C1B90912D1B90932B1B80932A1B1092291B1092AF
:203AA000281B1093231B0093221B8CE480935F0281E08093311B0E94680860931E1B70932D
:203AC0001F1B8093201B9093211BD0932A19C0932919789460E0CE01DF91CF911F910F9189
:203AE000FF90EF900C945D18E0E2F1E0808180688083109229011092280180E00E94521821
:203B000061E080E30E94B70760E080E30E94890761E08AE10E94B70760E08AE10E948907E3
:203B200060E082E30E94B70760E08CE10E94B7071092C31A1092C21AA9E5B2E015961C92FD
:203B40001597E3E5F2E0158281E013968C931397838314961C92149714821D921C92118226
:203B600010828FE593E00C940E16CF93DF93EC018F3F910519F014F0CFEFD0E0D7FF02C0D0
:203B8000D0E0C0E0CE010197099710F4CAE0D0E08091590290915A02892BE9F42097D9F076
:203BA000C83208F045C0C33208F047C0CE3108F049C0C93108F04BC0C43108F04DC080E4BF
:203BC0009CE9A0E0B0E08093210290932202A0932302B0932402D0935A02C09359026093B2
:203BE0005B0281E0209709F080E080935C0280915D02811110C080915E02882361F084E3E0
:203C00000E94890780912001806880932001D0932901C09328010E9468086093401B7093B8
:203C2000411B8093421B9093431BDF91CF91089580EE95E1A0E0B0E0C6CF8CE29AE1A0E0D8
:203C4000B0E0C1CF88E79EE1A0E0B0E0BCCF88E496E2A0E0B0E0B7CF80E092E3A0E0B0E05C
:203C6000B2CFCF92DF92EF92FF920F931F93CF93DF930E94680800914B1910914C192091F9
:203C80004D1930914E194091B0190115110521053105D9F06B017C01C01AD10AE20AF30A24
:203CA0009701860141116EC0043611052105310508F45FC060934B1970934C1980934D1966
:203CC00090934E19C9E1D0E00EC060934B1970934C1980934D1990934E19442399F3C0912C
:203CE0002502D09126026091C91A7091CA1A8091CB1A9091CC1A21EB39E1AE010E94870E52
:203D00008C016091C51A7091C61A8091C71A9091C81A25EB39E1AE010E94870EEC01609182
:203D2000050280910202909103028017910721F480915B02861739F0C8010E94B51D1093E9
:203D40000302009302026091040281E0682780910002909101028C179D0721F480915502E5
:203D6000861739F0CE010E945D18D0930102C0930002DF91CF911F910F91FF90EF90DF903F
:203D8000CF900895043111052105310590F360934B1970934C1980934D1990934E199FCFCD
:203DA000EF92FF920F931F93CF93DF937C018B018091C21A9091C31A029711F00E94AC1CD1
:203DC000E701CF3FD10519F014F0CFEFD0E0CA30D10514F4CAE0D0E061E08AE10E94B7075E
:203DE00060E08AE10E94890761E08CE10E94B70761E08CE10E94890780E00E94521860E04C
:203E000080E30E94B70761E082E30E94B70760E082E30E94890761E084E30E948907F8949C
:203E200080912E1B90912F1B90932B1B80932A1B1092291B1092281B1093231B0093221B80
:203E400082E580935F0281E08093311B0E94680860931E1B70931F1B8093201B9093211B9F
:203E6000D0932A19C0932919789461E0CE01DF91CF911F910F91FF90EF900C94B51D0F93A9
:203E80001F93CF93DF938C018091C21A9091C31A029711F00E94AC1CE8010F3F110519F0CA
:203EA00014F0CFEFD0E0CA30D10514F4CAE0D0E060E080E30E94B70760E08AE10E94B70750
:203EC00060E082E30E94B70760E08CE10E94B70760E0CE010E94B51D61E0CE010E945D1826
:203EE000D0935A02C0935902D0935402C093530210925B0281E080935502DF91CF911F91AA
:203F00000F910895CF93DF93FC01248135816217730788F49B01C081D18160E270E0CE0139
:203F2000820F931F0E94777A009729F08C1B9D0BDF91CF9108958FEF9FEFFACFFC0180816C
:203F40009181009711F00C94107260E070E0CB0108958F929F92AF92BF92CF92DF92EF9265
:203F6000FF92CF93DF93FC012081222309F43FC0FB0120812223D9F1EB010E9410726B01D5
:203F80007C0120E030E048EC52E40E9466780E94D878072E000C880B990B0E944D764B018F
:203FA0005C0120E030E048EC52E40E94AC769B01AC01C701B6010E94877720E030E040E7C7
:203FC00052E40E946678A50194010E94887728812B7F233509F49058DF91CF91FF90EF90E1
:203FE000DF90CF90BF90AF909F908F90089560E070E0CB01F1CFFC0180819181009711F0B6
:204000000C94327260E070E0CB010895AF92BF92CF92DF92EF92FF920F931F93CF93DF93C5
:20402000DC01CD90DC901197C114D10439F01496CD91DC918C017601209761F4DF91CF910A
:204040001F910F91FF90EF90DF90CF90BF90AF90089575015701BFEFAB1ABB0AF70180810A
:20406000082E000C990B0E942576892B91F72197CC0DDD1D8881082E000C990B0E9425762A
:20408000892B29F0CE15DF0510F02197F3CFAE014F5F5F4F4E195F09D80115965C934E93E4
:2040A0001497CE14DF0420F4B701C6010E946E7AD801ED91FC91119714968D919C91E80FFB
:2040C000F91F1082BBCFFB0144815581FC01248135812417350778F080819181009759F0EB
:2040E000FB01608171816115710529F00E94927A21E0892B09F020E0822F0895EF92FF9230
:204100000F931F93CF93DF938617970769F1FC0124813581FB014481558124173507E1F4A7
:20412000232B11F1FC0100811181FB01C081D181F80181918F018823B9F0082E000C990BBB
:204140000E945E7A7C018991082E000C990B0E945E7AE816F90661F380E0DF91CF911F91BD
:204160000F91FF90EF90089581E0F7CFFC0124813581232B39F421E0FB018081882349F018
:2041800020E007C0808191810E94827A21E0892BB9F7822F08950F931F93CF93DF938C013F
:2041A000EB01FC01808191810097E1F06881798161157105A9F0428153812C813D814217D8
:2041C000530770F00E948B7A8C819D81F801958384831D821C82DF91CF911F910F91089541
:2041E0000E94877188819981F801918380838A819B81938382838C819D81958384831982CB
:2042000018821B821A82E5CFCF93DF93EC0188819981009711F00E948771198218821D822D
:204220001C821B821A82DF91CF910895FC0180819181009711F00C94877108950F931F9309
:20424000CF93DF93EC0188819981009759F02A813B812617370730F081E0DF91CF911F91B7
:204260000F9108958B016F5F7F4F0E947D79009759F0998388831B830A832C813D81232B56
:2042800059F7FC011082E8CF80E0E7CFEF92FF920F931F93CF93DF936115710541F480E0B7
:2042A000DF91CF911F910F91FF90EF90089541155105B1F07B01EC010C811D81040F151F0B
:2042C000B8010E941E21882351F3288139818C819D81B701820F931F0E948B7A1D830C83F6
:2042E00081E0DECFCF93DF931F921F92CDB7DEB769831A8241E050E0BE016F5F7F4F0E948B
:2043000046210F900F90DF91CF910895EF92FF920F931F93CF93DF93EC017B018A01BA01A2
:204320000E941E2181110BC0CE010E940421CE01DF91CF911F910F91FF90EF9008951D836F
:204340000C83B701888199810E948B7AF0CFFB0101900020E9F73197AF01461B570B0C9425
:204360008621EF92FF920F931F93CF93DF93CDB7DEB7E3970FB6F894DEBF0FBECDBF7C0105
:20438000CB01BA01F7011182108213821282158214828E010F5F1F4F24E046E00E94CD70AF
:2043A000009789F0BC01C7010E94A721E3960FB6F894DEBF0FBECDBFDF91CF911F910F911E
:2043C000FF90EF900895C7010E940421EFCFFB01DC0111961C921E9213961C921E92129757
:2043E00015961C921E9214978617970749F0608171816115710521F0448155810C948621E3
:204400000895FC01118210821382128215821482FB0101900020E9F73197AF01461B570BBF
:204420000C948621AF92BF92CF92DF92EF92FF920F931F93CF93DF936C015B017A018901C9
:204440002417350720F48F2D7901042F182F60EC75E0C6010E940122D5011496CD91DC91A9
:20446000EC16FD06E0F40C171D0708F4E801D501ED91FC911197EC0FFD1F108110826D9176
:204480007C916E0D7F1DC60161157105A1F00E94A721F50180819181C80FD91F1883C60110
:2044A000DF91CF911F910F91FF90EF90DF90CF90BF90AF9008950E940421EBCFCF93DF9380
:2044C000EC01FB01248135810E941222CE01DF91CF9108952F923F924F925F926F927F9210
:2044E0008F929F92AF92BF92CF92DF92EF92FF920F931F93CF93DF93CDB7DEB7EA970FB66D
:20450000F894DEBF0FBECDBF7C0170E060E00E94821F5C016C012FEFC21AD20AB601C701AA
:204520000E94821F8C011A141B040CF0E1C0181619060CF0DDC09C01A601B701CE01019679
:204540000E941222A8014F5F5F4FB701CE0107960E945E22CE0101960E949E1F6D8F7E8F6C
:204560008F8F98A3CE0107960E949E1F6D8B7E8B8F8B988F20E030E040E85FEB6D8D7E8D4E
:204580008F8D98A10E94467687FDCBC020E030E040E85FE36D8D7E8D8F8D98A10E94357935
:2045A000181644F480E090E0A0E8BFE38D8F9E8FAF8FB8A320E030E040E050EC6D897E8950
:2045C0008F89988D0E94467687FDB4C020E030E040E050E46D897E898F89988D0E9435795A
:2045E000181644F480E090E0A0E0B0E48D8B9E8BAF8BB88F0E9468086093191B70931A1B3E
:2046000080931B1B90931C1B81E080931D1B8091A41A811118C08D8D9E8DAF8DB8A1809325
:20462000A91A9093AA1AA093AB1AB093AC1A2D893E894F89588D2093A51A3093A61A4093CD
:20464000A71A5093A81A8091C21A9091C31A029761F084E693E00E9475160E94AC1C64E661
:2046600070E080E090E00E943508CD8CDE8CEF8CF8A0E894F7F82AE037ED43E25CE3C701A0
:20468000B6010E94467687FF5EC02AE037ED43E25CE36D897E898F89988D9F770E94467621
:2046A00087FF51C00E94550F61E090E080E00E94B51D60E090E080E00E945D180E940F10F0
:2046C0000E949D0F8091A41A81110AC080E993E00E94851681EE93E00E941B0B0E940A16DC
:2046E000CE0107960E941621CE0101960E941621EA960FB6F894DEBF0FBECDBFDF91CF919F
:204700001F910F91FF90EF90DF90CF90BF90AF909F908F907F906F905F904F903F902F9027
:20472000089520E030E040E85FEB2D8F3E8F4F8F58A340CF20E030E040E050EC2D8B3E8BFC
:204740004F8B588F57CF0E94381081115DC21092CA198D899E89AF89B88D8093BA1990938F
:20476000BB19A093BC19B093BD19898B9A8BAB8BBC8B25E83BEE41ED5EE369897A898B89E0
:204780009C890E94AC766B017C012D8D3E8D4F8D58A10E94887769A77AA78BA79CA7A701FE
:2047A00096016D8D7E8D8F8D98A10E9487776DA77EA78FA798AB2224239420E030E0A901FF
:2047C00069A57AA58BA59CA50E94357987FD212C3324339420E030E0A9016DA57EA58FA5D9
:2047E00098A90E94357987FD312C809107028215F9F0809120018068809320011092290193
:20480000109228011092DB1A1092DC1A1092DD1A1092DE1A1092791910927A1910927B19CC
:2048200010927C1965E070E080E090E00E943508809106028315C9F080E00E945218109285
:20484000D31A1092D41A1092D51A1092D61A1092751910927619109277191092781965E0AD
:2048600070E080E090E00E943508209207023092060220E030E0A90169A57AA58BA59CA55C
:204880000E94357987FDC9C3409018025090190260901A0270901B0220E030E0A9016DA5DE
:2048A0007EA58FA598A90E94357987FDBFC320911402309115024091160250911702298FD0
:2048C0003A8F4B8F5C8FC9A4DAA4EBA4FCA4E894F7F811E02AE037ED43E25CE3C701B601C3
:2048E0000E94357918160CF010E02DA53EA54FA558A95F7729A33AA34BA35CA30E94680826
:204900004B015C012AE037ED43E25CE3C701B6010E943579181614F00C94132D80917419DD
:20492000811108C08092701990927119A0927219B09273192AE037ED43E25CE369A17AA194
:204940008BA19CA10E943579181614F00C942E2D80916F19811108C080926B1990926C1941
:20496000A0926D19B0926E191093741981E080936F192AE037ED43E25CE3C701B6010E94D7
:204980003579181614F40C94332D1D861E861F86188A2AE037ED43E25CE369A17AA18BA1C2
:2049A0009CA10E943579181614F00C94632D298D3A8D4B8D5C8D69A17AA18BA19CA10E949A
:2049C000AC762B013C0120E030E0A9010E94467687FF02C00C945E2D20E030E04FE753E444
:2049E000C301B2010E943579181634F4412C512CBFE76B2EB3E47B2E2AE037ED43E25CE39F
:204A0000C701B6010E94357918160CF024C38091701990917119A0917219B0917319A50142
:204A20009401281B390B4A0B5B0BDA01C90186399105A105B10560F420E030E048EC51E47C
:204A40006D857E858F8598890E94467687FD0AC72AE037ED43E25CE369A17AA18BA19CA159
:204A60000E94357918160CF4F6C220E030E0A9016D857E858F8598890E94357987FD12C373
:204A800020E030E040E05FE36D857E858F8598890E9488770E94D8787EA36DA320E030E0A6
:204AA000A901C301B2010E94357920E030E040E05FE387FD02C3C301B2010E9488770E9410
:204AC000D8787AAF69AF4DA15EA1141615068CF480915B02821569F0809120018068809308
:204AE000200110922901109228018BE39FE10197F1F789AD9AAD181619066CF481E083255D
:204B000090915502891739F080E00E9452188BE39FE10197F1F720E030E040E752E4C70145
:204B2000B6010E94AC762BE935E249E55FE30E94667869AB7AAB8BAB9CAB609367197093B3
:204B400068198093691990936A1920E030E040E752E469A17AA18BA19CA10E94AC762BE9C6
:204B600035E249E55FE30E9466786DAB7EAB8FAB98AF6093631970936419809365199093C9
:204B800066190E9468084B015C0180915F1990916019A0916119B09162190097A105B1055E
:204BA00009F490C2A5019401281B390B4A0B5B0BCA01B9010E944B7620E030E04AE754E4C8
:204BC0000E946678698F7A8F8B8F9C8F2AE037ED43EA5CE30E94467687FD13C62DEC3CEC79
:204BE0004CE45EE3698D7A8D8B8D9C8D0E94357918160CF06FC28DEC9CECACE4BEE3898F11
:204C00009A8FAB8FBC8F66C26091841A7091851A8091861A9091871A905825E33AEF4EE8CD
:204C20005CE30E94AC766093531970935419809355199093561920912F02309130024091E9
:204C40003102509132020E9487776D877E878F87988B40902B0250902C0260902D02709010
:204C60002E022AE037ED43EA5CE3C301B2010E94467687FD61C020E030E040E85FE3C301B2
:204C8000B2010E943579181634F4412C512C20E8622E2FE3722E8090BE199090BF19A09078
:204CA000C019B090C119A50194016D857E858F8598890E948777A30192010E94AC76A5015B
:204CC00094010E9488774B015C018092BE199092BF19A092C019B092C1199F7720912702FB
:204CE000309128024091290250912A020E94467618161CF0812C912C540180924F199092CD
:204D00005019A0925119B09252198091CB1981111CC01092CA192D893E894F89588D20930C
:204D2000BA193093BB194093BC195093BD19298B3A8B4B8B5C8B1DCD9AE0492E97ED592E8C
:204D400093EA692E9CE3792EA6CF2AE037ED43E25DE36D897E898F89988D9F770E94357971
:204D600087FD79C01092CA19A50194016D897E898F89988D0E9487772AE939E949E95EE334
:204D80000E94AC766B017C0123E333E343EB5EEB0E94467687FD42C023E333E343EB5EE364
:204DA000C701B6010E94357918163CF483E3C82EDC2C83EBE82E8EE3F82E1092C219109228
:204DC000C3191092C4191092C519A70196016D897E898F89988D0E948877698B7A8B8B8BCF
:204DE0009C8B20E030E040E050EC0E94467687FD1DC020E030E040E050E469897A898B89F4
:204E00009C890E9435791816CCF480E090E0A0E0B0E4898B9A8BAB8BBC8B10C003E3C02EF1
:204E2000DC2C03EBE02E0EEBF02EC7CF20E030E040E050EC298B3A8B4B8B5C8B89899A89EA
:204E4000AB89BC898093BA199093BB19A093BC19B093BD198ECC2FE832EC45EF5CE3C70111
:204E6000B6010E94467687FF07C00E94190F2D893E894F89588D5BCF6091801A7091811A7B
:204E80008091821A9091831A2091CA1921110EC08B019C0130580093C6191093C7192093BA
:204EA000C8193093C91921E02093CA192091C6193091C7194091C8195091C9190E9488778E
:204EC0006B017C0120E030E044E353E40E94357918164CF420E030E044EB53E4C701B601C8
:204EE0000E948777EDCF20E030E044E353ECC701B6010E94467687FF0BC020E030E044EB73
:204F000053E4C701B6010E9488776B017C01EBCF2FE832EC45EF5CEB6D8D7E8D8F8D98A18D
:204F20000E94467620E030E040E050E487FD04C02DEC3CEC4CE45FE3C701B6019F770E947D
:204F4000467687FF03C0C12CD12C7601C092C219D092C319E092C419F092C5192FE832EC9C
:204F600045EF5CEB6D8D7E8D8F8D98A10E94467687FD41C029E23CE54FE05DE38AE999E9E9
:204F8000A9E9BEE38D879E87AF87B88B13E3412E542C13EB612E1EE3712EC701B6010E94F9
:204FA000AC766B017C012D853E854F855889C501B4010E94AC769B01AC01C701B6010E9413
:204FC00087777B018C01A30192015058298B3A8B4B8B5C8B0E94467687FD30CFA30192019D
:204FE000B701C8010E9435791816A4F4498A5A8A6B8A7C8A23CF26EA3BE944E45CE38DEC62
:205000009CECACECBDE38D879E87AF87B88B2C013D01C3CFC701D801FCCE409010025090F4
:205020001102609012027090130236CC80910C0290910D02A0910E02B0910F02898F9A8F1F
:20504000AB8FBC8F40CC80E090E0A8ECB1E48D879E87AF87B88B80916B1990916C19A091A8
:205060006D19B0916E19A5019401281B390B4A0B5B0BDA01C90186399105A105B10508F017
:20508000F4CC20E030E048EC51E4C301B2010E94467687FFEACC412C512CA8EC6A2EA1E42B
:2050A0007A2EE3CC20E030E040E05FE36D857E858F8598890E948777EDCCC301B2010E948B
:2050C0008777FDCC2DEC3CEC4CEC5DE3298F3A8F4B8F5C8F80925F1990926019A092611939
:2050E000B092621910925B1910925C1910925D1910925E191092571910925819109259195C
:2051000010925A198091B919882309F4CFC320E030E040E450E469A97AA98BA99CA90E94A5
:20512000AC766DA37EA38FA398A720E030E040EF51E40E94467687FF08C020E030E040EF4C
:2051400051E42DA33EA34FA358A720E030E040E450E46DA97EA98FA998AD0E94AC764B0146
:205160005C0120E030E040EF51E40E94467687FF06C0812C912CF0EFAF2EF1E4BF2E2DA1FE
:205180003EA14FA158A56091D71A7091D81A8091D91A9091DA1A0E943579181684F41092BD
:2051A000D71A1092D81A1092D91A1092DA1A1092DB1A1092DC1A1092DD1A1092DE1AA50137
:2051C00094016091CF1A7091D01A8091D11A9091D21A0E943579181684F41092CF1A109249
:2051E000D01A1092D11A1092D21A1092D31A1092D41A1092D51A1092D61A8091CF1A90914D
:20520000D01AA091D11AB091D21A8DA39EA3AFA3B8A72AE037ED43E25CE3C701B6010E9486
:20522000357918160CF0B3C08090D71A9090D81AA090D91AB090DA1A20E030E040E05FE347
:20524000C501B4010E94357918160CF0A0C0A501940169A97AA98BA99CA90E9487774B0124
:205260005C01AC019B01698D7A8D8B8D9C8D0E94AC762091791930917A1940917B195091A9
:205280007C190E9488776B017C0120E030E040EF51EC0E94467687FDB9C220E030E040EFD7
:2052A00051E4C701B6010E943579181634F4C12CD12CE0EFEE2EE1E4FE2EC0927919D09288
:2052C0007A19E0927B19F0927C1920916602309167024091680250916902C501B4010E9437
:2052E000AC764B015C0120910B1C30910C1C40910D1C50910E1CC701B6010E94AC769B013E
:20530000AC01C501B4010E9488776B017C0120E030E040E251EC0E94467687FD7EC220E04A
:2053200030E040EC50E4C701B6010E943579181634F4C12CD12C60ECE62E60E4F62EC092D4
:205340005B19D0925C19E0925D19F0925E19A70196016D857E858F8598890E9488776D8723
:205360007E878F87988B20E030E0A9010E94467687FD8EC220E030E04FE753E46D857E8591
:205380008F8598890E94357918160CF486C22AE037ED43E25CE369A17AA18BA19CA10E9450
:2053A000357918160CF0AEC020E030E040E05FE36DA17EA18FA198A50E94357918160CF021
:2053C000A1C02DA13EA14FA158A56DA97EA98FA998AD0E9487776B017C01AC019B01698D50
:2053E0007A8D8B8D9C8D0E94AC76209175193091761940917719509178190E9488774B0152
:205400005C0120E030E040EF51EC0E94467687FD0BC220E030E040EF51E4C501B4010E9473
:205420003579181634F4812C912C40EFA42E41E4B42E8092751990927619A0927719B092A1
:20544000781920916602309167024091680250916902C701B6010E94AC766B017C01209114
:205460000B1C30910C1C40910D1C50910E1CC501B4010E94AC769B01AC01C701B6010E946E
:2054800088776B017C0120E030E040E251EC0E94467687FDD0C120E030E040EC50E4C7010A
:2054A000B6010E943579181634F4C12CD12C20ECE22E20E4F22EC0925719D0925819E0925E
:2054C0005919F0925A19A7019601C301B2010E9488772B013C0120E030E0A9010E9446768D
:2054E00087FDB0C120E030E04FE753E4C301B2010E943579181634F4412C512C8FE7682E27
:2055000083E4782E2D853E854F8558892093C91A3093CA1A4093CB1A5093CC1A4092C51AE5
:205520005092C61A6092C71A7092C81A20920502309204020E94311E8091A41A8111D0C887
:20554000E0900202F090030200910002109101028CEC93E00E94851643E050E06D8D7E8D9B
:205560008F8D98A10E94781783ED93E00E94851643E050E06D897E898F89988D0E947817C7
:2055800089ED93E00E94851643E050E069897A898B899C890E9478178FED93E00E94851607
:2055A0006091C2197091C3198091C4199091C51941E050E00E94781785EE93E00E948516B0
:2055C0006091531970915419809155199091561945E050E00E9478178BEE93E00E94851642
:2055E00060914F1970915019809151199091521943E050E00E94781781EF93E00E9485163D
:20560000C70197FF02C090E080E00E94BE1788EF93E00E948516C80117FF02C090E080E08B
:205620000E94BE178FEF93E00E9485166091DB1A7091DC1A8091DD1A9091DE1A0E94D878D5
:20564000CB010E94BE1786E094E00E9485166091D31A7091D41A8091D51A9091D61A0E9470
:20566000D878CB010E94BE178DE094E00E9485166091D71A7091D81A8091D91A9091DA1A8B
:205680000E94D878CB010E94BE1785E194E00E9485166091CF1A7091D01A8091D11A9091DC
:2056A000D21A0E94D878CB010E94BE178DE194E00E9485168091CE1A882309F4C7C08AEC0C
:2056C00093E00E94851683E294E00E9485168091CD1A882309F4BDC08AEC93E00E948516C1
:2056E00089E294E00E94851660916719709168198091691990916A1941E050E00E947817E2
:2057000081E394E00E9485166091631970916419809165199091661941E050E00E947817D8
:2057200089E394E00E94851660915B1970915C1980915D1990915E1942E050E00E947817CF
:205740008FE394E00E94851660915719709158198091591990915A1942E050E00E947817B9
:2057600085E494E00E9485168091B91990E00E94BE178AE494E00E94851620E030E0A9016C
:2057800069A57AA58BA59CA50E94357987FD64C08AEC93E00E9485168FE494E00E94851629
:2057A00020E030E0A9016DA57EA58FA598A90E94357987FD54C08AEC93E00E9485168BEDFF
:2057C00093E00E941B0B60919C1A70919D1A80919E1A90919F1A42E050E00E94781785ED97
:2057E00093E00E941B0B6091981A7091991A80919A1A90919B1A42E050E00E9478170C9459
:205800006E238AE097EDA3EABCE3F9C9C12CD12C70EFE72E71ECF72E50CDC12CD12C50E202
:20582000E52E51ECF52E8BCD812C912C30EFA32E31ECB32EFECDC12CD12C90E2E92E91EC8A
:20584000F92E39CE412C512C32015CCE8BEE9BE038CF8BEE9BE042CF82E693E09BCF82E626
:2058600093E0ABCF2AE037ED43E25CE369A17AA18BA19CA10E94357918160CF4E4CB80E08E
:2058800090E0A8ECB1E48D879E87AF87B88BF8C81D861E861F86188A7ACD20E030E04FE7E2
:2058A00053E42D873E874F87588B71CD23102ACE2DEC3CEC4CE45DE369897A898B899C8937
:2058C0009F770E94467687FF1DCE2AE037ED43E25CE3C701B6010E94357918160CF012CE78
:2058E0002AE037ED43E25CE369A17AA18BA19CA10E94357918160CF005CE8090DB1A909016
:20590000DC1AA090DD1AB090DE1A20E030E040E450E4C501B4010E94357918160CF0F2CD16
:20592000C090D31AD090D41AE090D51AF090D61A20E030E040E450E4C701B6010E943579D6
:2059400018160CF0DFCD20E030E040E251E46D857E858F8598890E94357987FDD3CD20E06C
:2059600030E040E251E4C301B2010E94357987FDC9CDA5019401C701B6010E94877720E085
:2059800030E040E05FE30E94AC766B017C0120E030E040E051EC0E94467608EF1FEF87FD94
:2059A00011C020E030E040E051E4C701B6010E94357908E010E018162CF0C701B6010E949F
:2059C000D8788B016DA17EA1600F711F6F3F710519F014F06FEF70E06A30710514F46AE07E
:2059E00070E0072E000C880B990B0E944D766D877E878F87988B69AD7AAD601B710B6F3F66
:205A0000710519F014F06FEF70E06A30710514F46AE070E0072E000C880B990B0E944D76C6
:205A20002B013C016FCD2AE037ED43E25CE369A17AA18BA19CA10E943579181614F40C947B
:205A4000A8241092741910926F19412C512C32014D865E866F86788A0C94402581E08093DD
:205A6000741910926F19A3019201C701B6010E94AC766D877E878F87988B20E030E0A90109
:205A80000E94467687FF02C00C94C52420E030E04FE753E46D857E858F8598890E943579E0
:205AA000181614F00C94C92480E090E0AFE7B3E48D879E87AF87B88B0C94C924412C512C01
:205AC00032010C94FC242AE037ED43E25CE3C701B6010E943579412C512C3201181614F023
:205AE0000C9435250C940725CF92DF92EF92FF920F931F93CF93DF93CDB7DEB72C970FB633
:205B0000F894DEBF0FBECDBF8C010E9406206DEE75E0CE0101960E940122BE016F5F7F4F78
:205B2000C8010E946320F82ECE0101960E941621FF2089F00E94DC1B2C960FB6F894DEBF31
:205B40000FBECDBFDF91CF911F910F91FF90EF90DF90CF90089568EF75E0CE0101960E949F
:205B60000122BE016F5F7F4FC8010E946320F82ECE0101960E941621FF2019F00E941A165A
:205B8000DBCF60E874E0CE0101960E940122BE016F5F7F4FC8010E946320F82ECE010196BF
:205BA0000E941621FF2009F43FC00E943810811105C080EF98E00E940E16BECF2091B61AF5
:205BC0003091B71A4091B81A5091B91A6091BA1A7091BB1A8091BC1A9091BD1A0E948777C2
:205BE0006B017C0120E030E0A9010E94467618161CF08EE998E0DFCFC0924F02D092500276
:205C0000E0925102F092520281E080937E198CE798E00E941B0B42E050E0C701B6010E94B8
:205C2000781788E698E0C7CF6AE874E0CE0101960E940122BE016F5F7F4FC8010E9463203F
:205C4000F82ECE0101960E941621FF2009F441C00E943810811103C08FE498E0ACCF20916C
:205C6000B61A3091B71A4091B81A5091B91A6091BA1A7091BB1A8091BC1A9091BD1A0E944F
:205C800087776B017C0120E030E0A9010E94357987FD03C080E098E08ECFF7FAF094F7F833
:205CA000F094C0924B02D0924C02E0924D02F0924E0281E080937D198EED97E00E941B0BBA
:205CC00042E050E0C701B6010E9478178AEC97E072CF63E974E0CE0101960E940122BE010A
:205CE0006F5F7F4FC8010E946320F82ECE0101960E941621FF2031F10E943810811103C035
:205D000081EB97E058CF0E94291AC090BA1AD090BB1AE090BC1AF090BD1AC092B61AD0921A
:205D2000B71AE092B81AF092B91A83E997E00E941B0B42E050E0C701B6010E9478178EE8D6
:205D400097E039CF67E974E0CE0107960E940122BE01695F7F4FC8010E946320FF24F39402
:205D6000811115C06EE974E0CE0101960E940122BE016F5F7F4FC8010E946320FF24F394F3
:205D8000811101C0F12CCE0101960E941621CE0107960E941621FF20A1F146E050E0B8014F
:205DA000CE0101960E945E22CE0101960E949E1F6B017C01CE0101960E94162120E030E05E
:205DC000A901C701B6010E94467618161CF085E797E0F1CEC0924F02D0925002E092510244
:205DE000F092520210927E198DE597E00E941B0B42E050E0C701B6010E94781788E597E0FD
:205E0000DACE65EA74E0CE0107960E940122BE01695F7F4FC8010E946320FF24F394811187
:205E200015C06BEA74E0CE0101960E940122BE016F5F7F4FC8010E946320FF24F394811134
:205E400001C0F12CCE0101960E941621CE0107960E941621FF20A1F145E050E0B801CE0152
:205E600001960E945E22CE0101960E949E1F6B017C01CE0101960E94162120E030E0A901C2
:205E8000C701B6010E94467618161CF080E497E092CEC0924B02D0924C02E0924D02F0921E
:205EA0004E0210927D1988E297E00E941B0B42E050E0C701B6010E94781783E297E07BCE8A
:205EC00061EB74E0CE0101960E940122BE016F5F7F4FC8010E946320F82ECE0101960E9480
:205EE0001621FF2009F4EDC086EB94E00E94751688ED94E00E9485168091C41A8111D8C051
:205F000088E39CE00E9475168CEE94E00E9485168091B11A8111CFC088E39CE00E94751631
:205F200081E095E00E9485160E9438108111C6C083E794E00E9475160E943810882309F4AF
:205F40005EC02091B61A3091B71A4091B81A5091B91A6091BA1A7091BB1A8091BC1A909116
:205F6000BD1A0E9487776B017C0185E195E00E9485166091BA1A7091BB1A8091BC1A909106
:205F8000BD1A42E050E00E94781789E295E00E9475168CE295E00E94851642E050E0C70160
:205FA000B6010E94781789E295E00E94751680E495E00E9485166091B21A7091B31A80913A
:205FC000B41A9091B51A42E050E00E94781784E595E00E94751689E595E00E948516609164
:205FE000AD1A7091AE1A8091AF1A9091B01A43E050E00E9478178EE695E00E94751683E748
:2060000095E00E9485166091A91A7091AA1A8091AB1A9091AC1A43E050E00E94781789E8A3
:2060200095E00E9485166091A51A7091A61A8091A71A9091A81A43E050E00E947A178DE88D
:2060400095E00E9485166091B61A7091B71A8091B81A9091B91A42E050E00E94781789E236
:2060600095E00E94751681EA95E00E94851660914702709148028091490290914A0244E0EF
:2060800050E00E9478178BEA95E00E9485166091430270914402809145029091460244E016
:2060A00050E00E947A1789E991E10E94751644CD80E39CE027CF84E594E030CF8FEB97E0B9
:2060C00039CF61EB75E0CE0107960E940122BE01695F7F4FC8010E946320FF24F394811167
:2060E00015C065EB75E0CE0101960E940122BE016F5F7F4FC8010E946320FF24F394811176
:2061000001C0F12CCE0101960E941621CE0107960E941621FF2021F143E050E0B801CE0111
:2061200001960E945E22CE0101960E949E1F6B017C01C0924702D0924802E0924902F09272
:206140004A02CE0101960E94162187E197E00E941B0B44E050E0C701B6010E947A17ECCC4F
:2061600069EB75E0CE0107960E940122BE01695F7F4FC8010E946320FF24F394811115C0F1
:206180006DEB75E0CE0101960E940122BE016F5F7F4FC8010E946320FF24F394811101C0E1
:2061A000F12CCE0101960E941621CE0107960E941621FF20E1F043E050E0B801CE010196DC
:2061C0000E945E22CE0101960E949E1F6B017C01C0924302D0924402E0924502F09246022D
:2061E000CE0101960E9416218BE097E0B0CF8BEF96E00E940E1681ED96E00E940E168FEA26
:2062000096E00E940E1681E796E00E940E168DE296E00E940E168CEE95E00E940E1684EBCF
:2062200095E00E940E168CE795E00E940E1687E495E00E940E1685E195E00E940E1681EEBF
:2062400094E0B9CC2F923F924F925F926F927F928F929F92AF92BF92CF92DF92EF92FF9207
:206260000F931F93CF93DF93CDB7DEB7EB970FB6F894DEBF0FBECDBF8C0170E060E00E9455
:20628000E9098855833210F00C94F545E82F880FFF0B8827E15BFE4C8F4F0C946D79B3425A
:2062A000F545F545F545F545F545F545F545F545F545F545123F693E22407C43F545E6322F
:2062C000F545273A2335F545F545983169407D3714388840A440F545FA3B7231F545ED41BF
:2062E0001E45AE40B801CE0101960E94E721CE0101960E946A22CE0101960E941621EB9630
:206300000FB6F894DEBF0FBECDBFDF91CF911F910F91FF90EF90DF90CF90BF90AF909F907D
:206320008F907F906F905F904F903F902F90089541E050E0B801CE0101960E945E22CE01D6
:2063400001960E94062066ED75E0CE0101960E94B620882329F08DE59AE00E940E16CBCF48
:206360006FED75E0CE0101960E94B620882309F48AC0F89440901B1C50901C1C60901D1CC8
:2063800070901E1C8090171C9090181CA090191CB0901A1CC0900F1BD090101BE090111BB0
:2063A000F090121B20910B1B30910C1B40910D1B50910E1B28A739A74AA75BA7789485E556
:2063C0009AE00E941B0B8EEE99E00E941B0BA7019601C301B2010E944D0E8150833008F08F
:2063E0004CC0E82FF0E0EE0FFF1FE457FD4F808191810E941B0B8AEE99E00E941B0B28A5A7
:2064000039A54AA55BA5C501B4010E944D0E81508330B0F5E82FF0E0EE0FFF1FE457FD4F85
:20642000808191810E941B0B85EE99E00E941B0B4AE050E0C301B2010E946C1680EE99E0F1
:206440000E941B0B4AE050E0C501B4010E946C168BED99E00E941B0B4AE050E0C701B601E9
:206460000E946C1686ED99E00E941B0B68A579A58AA59BA50E948C163ECF86ED9BE0B9CFE3
:2064800086ED9BE0CFCF65EE75E0CE0101960E94B620882381F081E08093EC1A1092EB1AAD
:2064A0001092F21A1092EF1A1092F01A1092ED1A88E49AE052CF60EF75E0CE0101960E947B
:2064C000B620882339F01092EC1A1092EB1A8AE39AE043CF6CEF75E0CE0101960E94B6203C
:2064E000882389F01092EB1A1092F21A1092EF1A1092F11A1092EE1A1092F01A1092ED1ACC
:206500008AE29AE02ACF8EE19AE00E941B0BE091F21AE15086ED9BE0E33038F4F0E0EE0F43
:20652000FF1FE457FD4F808191810E941B0B8AE19AE00E941B0BE091EF1AE15086ED9BE095
:20654000E33038F4F0E0EE0FFF1FE457FD4F808191810E941B0B80E19AE00E941B0B8091FB
:20656000EC1A90E00E94BE1786E09AE00E941B0B8091EB1A90E00E94BE1781E09AE00E940C
:206580001B0B8091F91A9091FA1A0E9499168CEF99E00E941B0B8091F71A9091F81A0E9478
:2065A000991687EF99E00E941B0B8091F51A9091F61A0E94991682EF99E00E941B0B809110
:2065C000F31A9091F41A0E94861795CE6AE076E0CE0101960E940122BE016F5F7F4FC801EE
:2065E0000E946320F82ECE0101960E941621FF2031F1D80114968D919C910497C8F043E08C
:2066000050E0B801CE0140960E945E22BE01605F7F4FCE0101960E94E721CE0101960E9466
:20662000742DCE0101960E941621CE01409665CE60EC75E0CE0140960E940122E7CF6DE094
:2066400076E0CE0101960E940122BE016F5F7F4FC8010E946320F82ECE0101960E9416210B
:20666000FF2009F44CCE42E050E0B801CE0182960E945E22CE0182960E9406206DEE75E071
:20668000CE0182960E94B620882309F4B2C081E08093CB190E94190F88E196E00E94851643
:2066A0008091CB1990E00E94BE1784E296E00E9485168091CA1990E00E94BE178BE296E027
:2066C0000E9485166091C6197091C7198091C8199091C91942E050E00E94781781E396E07A
:2066E0000E9485166091801A7091811A8091821A9091831A905842E050E00E94781784EDEF
:2067000098E10E9485166091C2197091C3198091C4199091C51942E050E00E94781787E340
:2067200096E00E9485166091841A7091851A8091861A9091871A905825E33AEF4EE85CE376
:206740000E94AC7645E050E00E9478178DE396E00E9485166091BE197091BF198091C01941
:206760009091C11945E050E00E94781784E496E00E94851660912F027091300280913102E4
:206780009091320245E050E00E9478178BE496E00E94851660912B0270912C0280912D026F
:2067A00090912E0243E050E00E94781783E596E00E94851660912702709128028091290268
:2067C00090912A0245E050E00E9478178BE596E00E9485166091BA197091BB198091BC1944
:2067E0009091BD1943E050E00E947A17CE01829684CD68EF75E0CE0182960E94B62088232E
:2068000019F01092CB1946CF64E076E0CE0182960E94B62081113ECF60E176E0CE0101963F
:206820000E940122BE016F5F7F4FCE0182960E946320182FCE0101960E941621112309F475
:206840002BCF47E050E0BE016E5D7F4FCE014C960E945E2270E060E0CE014C960E94821F38
:206860006C017C01BFEFEB1AFB0AB701CE014C960E94821F8C011C141D040CF0C3C0C8168F
:20688000D9060CF0BFC0960150E040E0BE01645E7F4FCE0101960E941222CE0101960E9424
:2068A0009E1F60932F02709330028093310290933202CE0101960E9416219801A701BE01E6
:2068C000645E7F4FCE0101960E941222CE0101960E949E1F2AE037ED43EA5CE30E9446762F
:2068E00087FD95C09801A701BE01645E7F4FCE0140960E941222CE0140960E949E1F20E0B0
:2069000030E040E85FE30E94357918160CF486C09801A701BE01645E7F4FCE0146960E945C
:206920001222CE0146960E949E1F21E0FF24F39460932B0270932C0280932D0290932E0288
